:020000040800F2
:10000000005000205D170008191500081B15000896
:100010001D1500081F15000821150008000000002C
:100020000000000000000000000000002315000890
:1000300025150008000000002715000829150008F4
:10004000A5170008A5170008A5170008A5170008A0
:10005000A5170008A5170008A5170008A517000890
:10006000A5170008A5170008A5170008A517000880
:10007000A5170008A5170008A5170008A517000870
:10008000A5170008A5170008A5170008A517000860
:10009000A5170008A5170008A5170008A517000850
:1000A000A5170008A5170008A5170008A517000840
:1000B000A5170008A517000831150008A5170008A6
:1000C000A5170008A5170008A5170008A517000820
:1000D000A5170008A5170008A5170008A517000810
:1000E000A5170008A5170008A517000800000000C4
:1000F0000000000000000000000000000000000000
:0C01000000000000000000005FF808F1A3
:1001100010B5054C237833B9044B13B10448AFF341
:1001200000800123237010BDC406002000000000E1
:100130001097000808B5034B1BB103490348AFF300
:10014000008008BD00000000C806002010970008CD
:1001500081F0004102E000BF83F0004330B54FEA78
:1001600041044FEA430594EA050F08BF90EA020FE5
:100170001FBF54EA000C55EA020C7FEA645C7FEA78
:10018000655C00F0E2804FEA5454D4EB5555B8BF9B
:100190006D420CDD2C4480EA020281EA030382EA0C
:1001A000000083EA010180EA020281EA0303362D9E
:1001B00088BF30BD11F0004F4FEA01314FF4801C71
:1001C0004CEA113102D0404261EB410113F0004F83
:1001D0004FEA03334CEA133302D0524263EB43033A
:1001E00094EA050F00F0A780A4F10104D5F1200ED8
:1001F0000DDB02FA0EFC22FA05F2801841F1000133
:1002000003FA0EF2801843FA05F359410EE0A5F106
:1002100020050EF1200E012A03FA0EFC28BF4CF037
:10022000020C43FA05F3C01851EBE37101F00045ED
:1002300007D54FF0000EDCF1000C7EEB00006EEBFA
:100240000101B1F5801F1BD3B1F5001F0CD3490884
:100250005FEA30004FEA3C0C04F101044FEA4452DB
:1002600012F5800F80F09A80BCF1004F08BF5FEA62
:10027000500C50F1000041EB045141EA050130BD42
:100280005FEA4C0C404141EB0101013C28BFB1F554
:10029000801FE9D291F0000F04BF01460020B1FA9F
:1002A00081F308BF2033A3F10B03B3F120020CDA72
:1002B0000C3208DD02F1140CC2F10C0201FA0CF050
:1002C00021FA02F10CE002F11402D8BFC2F1200CB5
:1002D00001FA02F120FA0CFCDCBF41EA0C0190406B
:1002E000E41AA2BF01EB0451294330BD6FEA0404B4
:1002F0001F3C1CDA0C340EDC04F11404C4F120029F
:1003000020FA04F001FA02F340EA030021FA04F3B0
:1003100045EA030130BDC4F10C04C4F1200220FA07
:1003200002F001FA04F340EA0300294630BD21FA45
:1003300004F0294630BD94F0000F83F4801306BF0B
:1003400081F480110134013D4EE77FEA645C18BFFF
:100350007FEA655C29D094EA050F08BF90EA020F96
:1003600005D054EA000C04BF1946104630BD91EA8E
:10037000030F1EBF0021002030BD5FEA545C05D191
:100380004000494128BF41F0004130BD14F58004D0
:100390003CBF01F5801130BD01F0004545F0FE4144
:1003A00041F470014FF0000030BD7FEA645C1ABF79
:1003B000194610467FEA655C1CBF0B46024650EAB0
:1003C000013406BF52EA033591EA030F41F40021DC
:1003D00030BD00BF90F0000F04BF0021704730B562
:1003E0004FF4806404F132044FF000054FF0000137
:1003F00050E700BF90F0000F04BF0021704730B5F8
:100400004FF4806404F1320410F0004548BF4042CC
:100410004FF000013EE700BF42004FEAE2014FEA21
:1004200031014FEA02701FBF12F07F4393F07F4FFC
:1004300081F06051704732F07F4208BF704793F0FF
:100440007F4F04BF41F40021704730B54FF4607412
:1004500001F0004521F000411CE700BF50EA010215
:1004600008BF704730B54FF000050AE050EA0102BE
:1004700008BF704730B511F0004502D5404261EB2E
:1004800041014FF4806404F132045FEA915C3FF46F
:10049000D8AE4FF003025FEADC0C18BF03325FEA0C
:1004A000DC0C18BF033202EBDC02C2F1200300FABD
:1004B00003FC20FA02F001FA03FE40EA0E0021FAE2
:1004C00002F11444BDE600BF80F0004002E000BF2E
:1004D00081F0004142001FBF5FEA410392EA030F2F
:1004E0007FEA226C7FEA236C6AD04FEA1262D2EB79
:1004F0001363C1BFD218414048404140B8BF5B427E
:10050000192B88BF704710F0004F40F4000020F016
:100510007F4018BF404211F0004F41F4000121F02C
:100520007F4118BF494292EA030F3FD0A2F1010276
:1005300041FA03FC10EB0C00C3F1200301FA03F1B4
:1005400000F0004302D5494260EB4000B0F5000FD7
:1005500013D3B0F1807F06D340084FEA310102F196
:100560000102FE2A51D2B1F1004F40EBC25008BF48
:1005700020F0010040EA03007047490040EB000012
:10058000013A28BFB0F5000FEDD2B0FA80FCACF113
:10059000080CB2EB0C0200FA0CF0AABF00EBC25040
:1005A00052421843BCBFD0401843704792F0000F2E
:1005B00081F4000106BF80F400000132013BB5E781
:1005C0004FEA41037FEA226C18BF7FEA236C21D0F7
:1005D00092EA030F04D092F0000F08BF084670475C
:1005E00090EA010F1CBF0020704712F07F4F04D12A
:1005F000400028BF40F00040704712F100723CBF3D
:1006000000F50000704700F0004343F0FE4040F466
:10061000000070477FEA226216BF08467FEA236324
:100620000146420206BF5FEA412390EA010F40F40F
:10063000800070474FF0000304E000BF10F000435B
:1006400048BF40425FEA000C08BF704743F0964342
:1006500001464FF000001CE050EA010208BF70475D
:100660004FF000030AE000BF50EA010208BF7047E4
:1006700011F0004302D5404261EB41015FEA010CF9
:1006800002BF84460146002043F0B64308BFA3F1F1
:100690008053A3F50003BCFA8CF2083AA3EBC253D3
:1006A00010DB01FA02FC634400FA02FCC2F12002F2
:1006B000BCF1004F20FA02F243EB020008BF20F029
:1006C0000100704702F1200201FA02FCC2F120028F
:1006D00050EA4C0021FA02F243EB020008BF20EA84
:1006E000DC7070474FF0FF0C1CEAD0521EBF1CEAB2
:1006F000D15392EA0C0F93EA0C0F6FD01A4480EAA0
:10070000010C400218BF5FEA41211ED04FF0006388
:1007100043EA501043EA5111A0FB01310CF00040B4
:10072000B1F5000F3EBF490041EAD3715B0040EADA
:10073000010062F17F02FD2A1DD8B3F1004F40EBAA
:10074000C25008BF20F00100704790F0000F0CF07D
:10075000004C08BF49024CEA502040EA51207F3A41
:10076000C2BFD2F1FF0340EAC250704740F400001C
:100770004FF00003013A5DDC12F1190FDCBF00F00D
:1007800000407047C2F10002410021FA02F1C2F1BB
:10079000200200FA02FC5FEA310040F1000053EA57
:1007A0004C0308BF20EADC70704792F0000F00F0A5
:1007B000004C02BF400010F4000F013AF9D040EAAB
:1007C0000C0093F0000F01F0004C02BF490011F43F
:1007D000000F013BF9D041EA0C018FE70CEAD1533D
:1007E00092EA0C0F18BF93EA0C0F0AD030F0004CBD
:1007F00018BF31F0004CD8D180EA010000F0004071
:10080000704790F0000F17BF90F0004F084691F02E
:10081000000F91F0004F14D092EA0C0F01D1420268
:100820000FD193EA0C0F03D14B0218BF084608D131
:1008300080EA010000F0004040F0FE4040F400007B
:10084000704740F0FE4040F4400070474FF0FF0C0E
:100850001CEAD0521EBF1CEAD15392EA0C0F93EA55
:100860000C0F69D0A2EB030280EA010C49024FEAA7
:10087000402037D04FF0805343EA111143EA101360
:100880000CF000408B4238BF5B0042F17D024FF418
:10089000000C8B4224BF5B1A40EA0C00B3EB510FF3
:1008A00024BFA3EB510340EA5C00B3EB910F24BFDC
:1008B000A3EB910340EA9C00B3EBD10F24BFA3EB61
:1008C000D10340EADC001B0118BF5FEA1C1CE0D129
:1008D000FD2A3FF650AF8B4240EBC25008BF20F0DC
:1008E000010070470CF0004C4CEA50207F32C2BF30
:1008F000D2F1FF0340EAC250704740F400004FF0CD
:100900000003013A37E792F0000F00F0004C02BFFD
:10091000400010F4000F013AF9D040EA0C0093F0C7
:10092000000F01F0004C02BF490011F4000F013B21
:10093000F9D041EA0C0195E70CEAD15392EA0C0F89
:1009400008D142027FF47DAF93EA0C0F7FF470AFC1
:10095000084676E793EA0C0F04D14B023FF44CAF04
:1009600008466EE730F0004C18BF31F0004CCAD199
:1009700030F000427FF45CAF31F000437FF43CAFD5
:100980005FE700BF844641EA000313F0030349D147
:10099000403A23D30B6803604B6843608B688360E5
:1009A000CB68C3600B6903614B6943618B698361E9
:1009B000CB69C3610B6A03624B6A43628B6A8362D1
:1009C000CB6AC3620B6B03634B6B43638B6B8363B9
:1009D000CB6BC36340304031403ADBD230320BD373
:1009E0000B6803604B6843608B688360CB68C360AF
:1009F00010301031103AF3D20C3205D351F8043BC9
:100A000040F8043B043AF9D2043208D0D2071CBFA4
:100A100011F8013B00F8013B01D30B8803806046CD
:100A2000704700BF082A13D38B07B1D010F003031F
:100A3000AED0C3F10403D21ADB071CBF11F8013B8F
:100A400000F8013BA4D331F8023B20F8023B9FE7BA
:100A5000043AD9D3013A11F8013B00F8013BF9D22D
:100A60000B7803704B7843708B78837060467047C7
:100A700070B54FF0FF0C4CF4E06C1CEA11541DBF34
:100A80001CEA135594EA0C0F95EA0C0F00F0DEF8FF
:100A90002C4481EA030621EA4C5123EA4C5350EAE4
:100AA000013518BF52EA033541F4801143F4801335
:100AB00038D0A0FB02CE4FF00005E1FB02E506F0C6
:100AC0000042E0FB03E54FF00006E1FB03569CF01B
:100AD000000F18BF4EF0010EA4F1FF04B6F5007F21
:100AE00064F5407404D25FEA4E0E6D4146EB060693
:100AF00042EAC62141EA55514FEAC52040EA5E501C
:100B00004FEACE2EB4F1FD0C88BFBCF5E06F1ED8C5
:100B1000BEF1004F08BF5FEA500E50F1000041EBFC
:100B2000045170BD06F0004646EA010140EA0200A9
:100B300081EA0301B4EB5C04C2BFD4EB0C0541EACB
:100B4000045170BD41F480114FF0000E013C00F3E0
:100B5000AB8014F1360FDEBF002001F0004170BD04
:100B6000C4F10004203C35DA0C341BDC04F114041D
:100B7000C4F1200500FA05F320FA04F001FA05F2A9
:100B800040EA020001F0004221F0004110EBD37076
:100B900021FA04F642EB06015EEA430E08BF20EAA2
:100BA000D37070BDC4F10C04C4F1200500FA04F345
:100BB00020FA05F001FA04F240EA020001F00041D7
:100BC00010EBD37041F100015EEA430E08BF20EA4A
:100BD000D37070BDC4F1200500FA05F24EEA020E92
:100BE00020FA04F301FA05F243EA020321FA04F0C1
:100BF00001F0004121FA04F220EA020000EBD37078
:100C00005EEA430E08BF20EAD37070BD94F0000F77
:100C10000FD101F00046400041EB010111F4801FAB
:100C200008BF013CF7D041EA060195F0000F18BF5C
:100C3000704703F00046520043EB030313F4801F98
:100C400008BF013DF7D043EA0603704794EA0C0F52
:100C50000CEA135518BF95EA0C0F0CD050EA410668
:100C600018BF52EA4306D1D181EA030101F00041E5
:100C70004FF0000070BD50EA410606BF104619460D
:100C800052EA430619D094EA0C0F02D150EA013619
:100C900013D195EA0C0F05D152EA03361CBF10465A
:100CA00019460AD181EA030101F0004141F0FE41F9
:100CB00041F470014FF0000070BD41F0FE4141F47D
:100CC000780170BD70B54FF0FF0C4CF4E06C1CEA7D
:100CD00011541DBF1CEA135594EA0C0F95EA0C0F32
:100CE00000F0A7F8A4EB050481EA030E52EA0335ED
:100CF0004FEA013100F088804FEA03334FF080550E
:100D000045EA131343EA12634FEA022245EA11153A
:100D100045EA10654FEA00260EF000419D4208BFEB
:100D2000964244F1FD0404F5407402D25B084FEA98
:100D30003202B61A65EB03055B084FEA32024FF444
:100D400080104FF4002CB6EB020E75EB030E22BFA1
:100D5000B61A754640EA0C005B084FEA3202B6EB61
:100D6000020E75EB030E22BFB61A754640EA5C0010
:100D70005B084FEA3202B6EB020E75EB030E22BFA0
:100D8000B61A754640EA9C005B084FEA3202B6EBA1
:100D9000020E75EB030E22BFB61A754640EADC0060
:100DA00055EA060E18D04FEA051545EA16754FEAC2
:100DB00006164FEAC30343EA52734FEAC2025FEAE0
:100DC0001C1CC0D111F4801F0BD141EA00014FF06F
:100DD00000004FF0004CB6E711F4801F04BF014340
:100DE0000020B4F1FD0C88BFBCF5E06F3FF6AFAE5C
:100DF000B5EB030C04BFB6EB020C5FEA500C50F1EC
:100E0000000041EB045170BD0EF0004E4EEA11316E
:100E100014EB5C04C2BFD4EB0C0541EA045170BD75
:100E200041F480114FF0000E013C90E645EA060EB9
:100E30008DE60CEA135594EA0C0F08BF95EA0C0FE7
:100E40003FF43BAF94EA0C0F0AD150EA01347FF42F
:100E500034AF95EA0C0F7FF425AF104619462CE706
:100E600095EA0C0F06D152EA03353FF4FDAE104669
:100E7000194622E750EA410618BF52EA43067FF4BA
:100E8000C5AE50EA41047FF40DAF52EA43057FF44A
:100E9000EBAE12E74FF0FF3C06E000BF4FF0010C55
:100EA00002E000BF4FF0010C4DF804CD4FEA410CB9
:100EB0007FEA6C5C4FEA430C18BF7FEA6C5C1BD086
:100EC00001B050EA410C0CBF52EA430C91EA030F07
:100ED00002BF90EA020F0020704710F1000F91EA64
:100EE000030F58BF994208BF90422CBFD8176FEA32
:100EF000E37040F0010070474FEA410C7FEA6C5C00
:100F000002D150EA013C07D14FEA430C7FEA6C5C06
:100F1000D6D152EA033CD3D05DF8040B704700BF32
:100F20008446104662468C461946634600E000BF80
:100F300001B5FFF7B7FF002848BF10F1000F01BD52
:100F40004DF808EDFFF7F4FF0CBF012000205DF81D
:100F500008FB00BF4DF808EDFFF7EAFF34BF0120A2
:100F600000205DF808FB00BF4DF808EDFFF7E0FF3B
:100F700094BF012000205DF808FB00BF4DF808ED8C
:100F8000FFF7CEFF94BF012000205DF808FB00BFF3
:100F90004DF808EDFFF7C4FF34BF012000205DF8D5
:100FA00008FB00BF4FEA410C7FEA6C5C02D150EABB
:100FB000013C0AD14FEA430C7FEA6C5C02D152EA51
:100FC000033C02D14FF0000070474FF00100704722
:100FD0004FEA410212F5001215D211D56FF4787361
:100FE000B3EB625212D94FEAC12343F0004343EA04
:100FF000505311F0004F23FA02F018BF40427047DF
:101000004FF00000704750EA013005D111F0004068
:1010100008BF6FF0004070474FF00000704700BFFE
:1010200010B582B000F07F008DF804008DF8051037
:10103000094C00221021204600F094FD4FF0FF33B0
:10104000022201A9054801F0A2F90122102120463F
:1010500000F088FD02B010BD00080140E406002049
:1010600010B584B060F07F008DF80C0000228DF880
:101070000D20ADF808200B4C1021204600F072FD29
:101080004FF0FF330093022302AA03A9064801F0A0
:1010900060FA01221021204600F064FD9DF809004D
:1010A00004B010BD00080140E406002008B500218E
:1010B0004E20FFF7B5FF0A2000F0C0FB7520FFF7B8
:1010C000CFFF422802D0472800D0FEE70F214E2054
:1010D000FFF7A6FF26214F20FFF7A2FF2621502071
:1010E000FFF79EFF03211620FFF79AFF642000F010
:1010F000A5FB08BD70B505460C461F20FFF7B0FFE5
:1011000006462020FFF7ACFF03B243EA0620288002
:101110002120FFF7A5FF06462220FFF7A1FF03B21B
:1011200043EA062068802320FFF79AFF0646242022
:10113000FFF796FF03B243EA0620A8802520FFF7B9
:101140008FFF05462620FFF78BFF03B243EA0520F9
:1011500020802720FFF784FF05462820FFF780FF27
:1011600003B243EA052060802920FFF779FF054696
:101170002A20FFF775FF03B243EA0520A08070BD67
:101180002DE9F04180460D4617461E4600240AE030
:1011900038F91400FFF752FA4FF06651FFF7A2FA40
:1011A00047F824000134022CF2DD002409E035F96F
:1011B0001400FFF743FA0549FFF748FB46F82400FF
:1011C0000134022CF3DDBDE8F08100BF333303426C
:1011D00010B51D20FFF744FF040224B21E20FFF7C4
:1011E0003FFF00B22043FFF729FA0349FFF72EFB28
:1011F0000249FFF76FF910BDE17A04430000C841CE
:101200002DE9F04389B004AD0024049405940694BC
:101210000794274B9A6942F010029A619A6902F08A
:1012200010020092009A9A6942F020029A619A692B
:1012300002F020020192019A9A6942F004029A6136
:101240009A6902F004020292029A9A6942F0080234
:101250009A619B6903F008030393039BDFF85490A2
:1012600022464FF40051484600F07CFC124E2246C4
:101270001021304600F076FC4FF4005304934FF0F9
:101280000108CDF81480069402270797294648469E
:1012900000F05EFB10230493CDF8148006940797AA
:1012A0002946304600F054FB09B0BDE8F08300BF8A
:1012B00000100240001001400008014000B583B05A
:1012C00001904FF0FF33012201A9034801F09BFD7B
:1012D000019803B000BD00BF8807002008B54FF497
:1012E0000051024800F044FC08BD00BF001001405E
:1012F0000268044B9A4200D07047034A13680133D6
:101300001360F9E700080040E006002072B6FEE72F
:1013100010B590B006AC28220021204601F024FF31
:1013200000230193029303930493059301220692F1
:101330004FF4803307930A9202220D920E934FF4DA
:10134000E0130F93204600F033FC78B90F2301938C
:1013500002210291002303934FF4806204920593CB
:1013600001A800F057FE18B910B010BDFFF7CEFF6E
:10137000FFF7CCFF70B596B000F03CFAFFF7C8FF5E
:10138000FFF73EFF00F048F800F090F900F038F960
:101390001F4801F035FAFFF789FEFFF79FFF0EAEF9
:1013A0000CAD31462846FFF7A5FEFFF711FF0446B6
:1013B00013AB10AA31462846FFF7E2FE2046FFF79E
:1013C0002BF804460D461598FFF726F8CDE90A01DB
:1013D0001498FFF721F8CDE908011398FFF71CF8DE
:1013E000CDE906011298FFF717F8CDE9040111982D
:1013F000FFF712F8CDE902011098FFF70DF8CDE9DB
:10140000000122462B46034801F052FEC5E700BF0B
:10141000400700202897000808B50E480E4B0360CF
:101420004FF48273436000238360C36003614361B0
:101430004FF4007282611022C261036243628362D0
:101440000A23C36200F048FF00B908BDFFF75EFF42
:10145000FBE700BFE40600200030014030B587B054
:10146000002302930393049305930268174B9A4257
:1014700001D007B030BD03F560439A6942F4805251
:101480009A619A6902F480520092009A9A6942F035
:1014900004029A619B6903F004030193019BA0235A
:1014A0000293022303930323059302AD084C2946BC
:1014B000204600F04DFA4023029300230393049347
:1014C0002946204600F044FAD3E700BF003001402F
:1014D0000008014082B00E4B9A6942F001029A6105
:1014E0009A6902F001020092009ADA6942F0805291
:1014F000DA61DB6903F080530193019B054A53686D
:1015000023F0E06343F00073536002B0704700BF04
:101510000010024000000140FEE7FEE7FEE7FEE7A4
:10152000FEE770477047704708B500F075F908BDD1
:1015300008B5024801F09AF908BD00BF4007002035
:101540000120704708B501F0B1FE162303604FF08B
:10155000FF3008BD08B54FF0FF31FFF7F3FFFEE79E
:1015600070B50C461646002506E0AFF30080214614
:1015700001F8010B01350C46B542F6DB304670BD73
:1015800070B50C461646002504E014F8010BFFF771
:1015900095FE0135B542F8DB304670BD4FF0FF30A7
:1015A00070474FF400534B60002070470120704794
:1015B0000020704710B503460C4A0D490D480068DD
:1015C00040B10C4800680344521A934206D8094AB5
:1015D000136010BD0748084C0460F2E701F066FE96
:1015E0000C2303604FF0FF30F3E700BF00500020F2
:1015F000000400003C070020E80A002070470000BB
:1016000000B587B0002302930393049305930093DE
:1016100001931548154A02604722426083604FF6E5
:10162000FF72C26003618023836101F011FA88B9FF
:101630004FF48053029302A90B4801F041FA60B9BC
:101640000023009301936946074801F0B9FA38B9BD
:1016500007B000BDFFF75AFEEAE7FFF757FEEFE7D6
:10166000FFF754FEF4E700BF4007002000080040E9
:1016700002680D4B9A4200D0704700B583B003F565
:101680000233DA6942F00402DA61DB6903F0040331
:101690000193019B002211461E2000F027F91E2015
:1016A00000F034F903B000BD0008004008B50A4856
:1016B0000A4B03604FF46123436000238360C360DF
:1016C00003610C2242618361C36101F06CFB00B9CC
:1016D00008BDFFF71BFEFBE788070020003801402C
:1016E00030B587B0002302930393049305930268F7
:1016F000184B9A4201D007B030BD03F558439A69A0
:1017000042F480429A619A6902F480420092009AFF
:101710009A6942F004029A619B6903F00403019301
:10172000019B4FF400730293022303930323059359
:1017300002AD094C2946204600F00AF94FF48063B7
:1017400002930023039304932946204600F000F9F6
:10175000D1E700BF0038014000080140FFF74EFF0D
:101760000B480C490C4A002302E0D458C4500433FF
:10177000C4188C42F9D3094A094C002301E01360D4
:101780000432A242FBD301F097FDFFF7F3FD70474F
:1017900000000020C4060020409B0008C406002072
:1017A000E80A0020FEE7000010B504460E4B18685A
:1017B0000E4B1A784FF47A73B3FBF2F3B0FBF3F0ED
:1017C00000F0B2F868B90F2C01D901200AE000221C
:1017D00021464FF0FF3000F089F8054B1C600020D7
:1017E00000E0012010BD00BF000000200400002028
:1017F0000800002008B5074A136843F0100313607F
:10180000032000F061F80020FFF7CEFFFFF762FE33
:10181000002008BD00200240034A1168034B1B78DA
:101820000B441360704700BFD00700200400002065
:10183000014B1868704700BFD007002038B5044638
:10184000FFF7F6FF0546B4F1FF3F02D0044B1B78CB
:101850001C44FFF7EDFF401BA042FAD338BD00BF88
:1018600004000020002808DB0901C9B200F1604033
:1018700000F5614080F80013704700F00F00090187
:10188000C9B2014B1954704714ED00E000B500F0E7
:101890000700C0F1070CBCF1040F28BF4FF0040C87
:1018A000031D062B0ED9C31E4FF0FF3E0EFA0CF09F
:1018B00021EA000199400EFA03FE22EA0E0241EAF3
:1018C000020000BD0023EFE7074AD36823F4E0637A
:1018D0001B041B0C000200F4E060034343F0BF63F1
:1018E00043F40033D360704700ED00E010B50446C8
:1018F000054BD868C0F30220FFF7C8FF0146204619
:10190000FFF7B0FF10BD00BF00ED00E0002807DBCF
:1019100000F01F02400901239340024A42F82030A0
:10192000704700BF00E100E00138B0F1807F0BD2CA
:101930004FF0E0235861054AF02182F8231000207F
:10194000986107221A6170470120704700ED00E09E
:1019500070B582B00024A4469EE07C4DAB4214D00A
:101960000CD8A5F58015AB420FD005F57025AB421C
:101970000BD0A5F58015AB421FD106E0744DAB42EC
:1019800003D005F58035AB4217D18B68A3B1012B8D
:101990000DD04261082410E0CC680EE0CC6804341D
:1019A0000BE0CC68083408E0CC680C3405E0026138
:1019B000082402E0002400E00424BEF1FF0F37D821
:1019C00006464FEA8C0233680F25954023EA05034B
:1019D00004FA02F2134333604B6813F0805F59D06E
:1019E0005C4B9A6942F001029A619B6903F0010322
:1019F0000193019B4FEA9C02951C574B53F82560BD
:101A00000CF00305AD000F23AB4026EA0306534B51
:101A1000984214D003F58063984279D003F580632F
:101A2000984277D003F58063984206D0042307E0FC
:101A3000061DACF108029200C5E7032300E0002375
:101A4000AB4033430232444D45F822304B6813F427
:101A5000801F61D0424A936843EA0E0393604B684B
:101A600013F4001F5ED03E4AD36843EA0E03D360EE
:101A70004B6813F4003F5BD0394A536843EA0E03C6
:101A800053604B6813F4803F58D0354A136843EADB
:101A90000E0313600CF1010C0B6833FA0CF253D0F7
:101AA000012202FA0CF203EA020E32EA0303F1D138
:101AB0004B68122B3FF651AF122B3FF67EAF01A5BC
:101AC00055F823F08B19000899190008A31900088C
:101AD000B5190008BB190008BB190008BB1900089C
:101AE000BB190008BB190008BB190008BB19000886
:101AF000BB190008BB190008BB190008BB19000876
:101B0000BB190008BB1900089D190008A919000895
:101B1000012395E7022393E7114A936823EA0E0312
:101B200093609CE70E4AD36823EA0E03D3609FE7D5
:101B30000B4A536823EA0E035360A2E7084A13686E
:101B400023EA0E031360A5E702B070BD0000221067
:101B50000000311000100240000001400008014068
:101B6000000401400AB10161704709040161704736
:101B7000C36801EA030221EA030141EA024101616B
:101B80007047000082B0084B1B68084AA2FB032381
:101B90005B0A00FB03F3019300BF019B5A1E0192F5
:101BA000002BF9D102B0704700000020D34D621025
:101BB000002800F0F18170B582B00446036813F08C
:101BC000010F2CD0994B5B6803F00C03042B1DD044
:101BD000964B5B6803F00C03082B12D06368B3F5D7
:101BE000803F41D0002B55D103F1804303F50433EE
:101BF0001A6822F480321A601A6822F480221A606D
:101C000037E08A4B5B6813F4803FE7D0874B1B6853
:101C100013F4003F03D06368002B00F0BF812368FA
:101C200013F0020F75D0814B5B6813F00C0F5FD07F
:101C30007E4B5B6803F00C03082B54D02369002B08
:101C400000F08A807A4B01221A60FFF7F1FD054609
:101C5000764B1B6813F0020F75D1FFF7E9FD401BAF
:101C60000228F5D903209EE1704A136843F48033BB
:101C70001360636843B3FFF7DBFD05466B4B1B68DE
:101C800013F4003FCBD1FFF7D3FD401B6428F5D9F7
:101C9000032088E1B3F5A02F09D0644B1A6822F421
:101CA00080321A601A6822F480221A60E1E703F198
:101CB0008043A3F53C331A6842F480221A601A6804
:101CC00042F480321A60D4E7FFF7B2FD0546574B65
:101CD0001B6813F4003FA2D0FFF7AAFD401B642845
:101CE000F5D903205FE1514B5B6813F4803FA5D128
:101CF0004E4B1B6813F0020F03D02369012B40F0F9
:101D00004F814A4A136823F0F803616943EAC1032B
:101D10001360236813F0080F33D0A369002B5CD045
:101D2000434B0122C3F88024FFF782FD05463F4B59
:101D30005B6A13F0020F21D1FFF77AFD401B0228E6
:101D4000F5D903202FE1394A136823F0F8036169BC
:101D500043EAC1031360DCE7354B00221A60FFF74A
:101D600067FD0546314B1B6813F0020FD1D0FFF71A
:101D70005FFD401B0228F5D9032014E10120FFF785
:101D800001FF236813F0040F00F09680274BDB69F6
:101D900013F0805F34D1254BDA6942F08052DA616A
:101DA000DB6903F080530193019B0125214B1B68E4
:101DB00013F4807F26D0E368012B3DD0002B53D154
:101DC00003F1804303F504331A6A22F001021A6218
:101DD0001A6A22F004021A6233E0154B0022C3F89B
:101DE0008024FFF725FD0546104B5B6A13F0020FB8
:101DF000C7D0FFF71DFD401B0228F5D90320D2E014
:101E00000025D3E70B4A136843F480731360FFF790
:101E10000FFD0646074B1B6813F4807FCBD1FFF7FD
:101E200007FD801B6428F5D90320BCE000100240A8
:101E300000004242007000405F4A136A43F0010311
:101E40001362E36833B3FFF7F3FC06465A4B1B6A91
:101E500013F0020F2FD1FFF7EBFC801B41F2883308
:101E60009842F3D903209EE0052B09D0524B1A6A01
:101E700022F001021A621A6A22F004021A62E0E7F2
:101E80004D4B1A6A42F004021A621A6A42F00102C9
:101E90001A62D6E7FFF7CCFC0646474B1B6A13F0E5
:101EA000020F08D0FFF7C4FC801B41F28833984230
:101EB000F3D9032077E0E5B9E369002B72D03E4AFD
:101EC000526802F00C02082A56D0022B17D03B4B66
:101ED00000221A66FFF7ACFC0446374B1B6813F070
:101EE000007F47D0FFF7A4FC001B0228F5D9032090
:101EF00059E0314AD36923F08053D361DCE72F4B9B
:101F000000221A66FFF794FC05462B4B1B6813F062
:101F1000007F06D0FFF78CFC401B0228F5D9032078
:101F200041E0236AB3F5803F1AD023494B6823F47C
:101F30007413226A606A024313434B601F4B0122F1
:101F40001A66FFF775FC04461B4B1B6813F0007FF5
:101F50000ED1FFF76DFC001B0228F5D9032022E00B
:101F6000154A536823F40033A1680B435360DCE740
:101F7000002018E0002016E0012B16D00E4B5B6805
:101F800003F48031226A914211D103F47013626A22
:101F900093420ED1002006E001207047012002E0AC
:101FA000012000E0002002B070BD0120FBE701200D
:101FB000F9E70120F7E700BF0010024000004242AD
:101FC0000F4B5B6803F00C02082A01D00D487047E4
:101FD000C3F383420C49885C13F4803F0BD0084B59
:101FE0005B68C3F34043094AD35C064A02FB00F036
:101FF000B0FBF3F07047064B03FB00F0704700BFE7
:102000000010024000127A00DC980008D8980008FE
:1020100000093D00002800F0A08070B50D46044680
:10202000524B1B6803F007038B420BD24F4A1368D5
:1020300023F007030B431360136803F007038B427D
:1020400040F08D80236813F0020F17D013F0040FB7
:1020500004D0474A536843F4E0635360236813F0A5
:10206000080F04D0424A536843F460535360404A17
:10207000536823F0F003A1680B435360236813F007
:10208000010F31D06368012B20D0022B25D0384AB4
:10209000126812F0020F64D035494A6822F0030238
:1020A00013434B60FFF7C4FB0646314B5B6803F0FC
:1020B0000C036268B3EB820F16D0FFF7B9FB801BED
:1020C00041F288339842F0D9032045E0284A12684B
:1020D00012F4003FE0D101203EE0254A126812F0E0
:1020E000007FD9D1012037E0204B1B6803F00703A4
:1020F000AB420AD91D4A136823F007032B43136030
:10210000136803F00703AB422DD1236813F0040FCB
:1021100006D0174A536823F4E063E1680B43536029
:10212000236813F0080F07D0114A536823F4605353
:10213000216943EAC1035360FFF742FF0C4B5B6820
:10214000C3F303130B4AD35CD8400B4B18600B4B03
:102150001868FFF729FB002070BD0120704701209F
:10216000FAE70120F8E70120F6E700BF002002406F
:1021700000100240C898000800000020080000205D
:10218000014B1868704700BF0000002008B5FFF73A
:10219000F7FF044B5B68C3F30223034AD35CD840C8
:1021A00008BD00BF00100240C098000808B5FFF746
:1021B000E7FF044B5B68C3F3C223034AD35CD840F8
:1021C00008BD00BF00100240C09800082DE9F0478C
:1021D00082B00546884617461E46FFF729FB0A9B34
:1021E0001B1A03EB0609FFF723FB8246284B1B68EB
:1021F000C3F3CB3309FB03F301932B689C6838EAE4
:1022000004040CBF01230023BB423DD0B6F1FF3FC5
:10221000F3D0FFF70DFBA0EB0A00484507D2019A67
:1022200002B14A46019B013B01939146E5E72A68CA
:10223000536823F0E00353606B68B3F5827F0BD0E3
:10224000AB6AB3F5005F14D0012385F85130002349
:1022500085F85030032018E0AB68B3F5004F02D08A
:10226000B3F5806FECD12A68136823F04003136044
:10227000E6E72A68136823F4005313602A6813689A
:1022800043F400531360DFE7002002B0BDE8F0879D
:102290000000002070B582B006460C46154600923C
:1022A0000B4601220221FFF791FF48B90095234612
:1022B000002280213046FFF789FF38B902B070BD97
:1022C000736D43F0200373650320F7E7736D43F0EC
:1022D000200373650320F1E7002856D010B50446AB
:1022E000436A33B94368B3F5827F05D00023C361E5
:1022F00002E00023036143610023A36294F851309C
:10230000002B3CD0022384F851302268136823F05C
:1023100040031360636803F48273A26802F404420A
:102320001343E26802F400621343226902F00202DE
:102330001343626902F001021343A26902F40072BE
:102340001343E26902F038021343226A02F080026A
:102350001343A26A02F40052216813430B60638B9B
:10236000226803F0040353602268D36923F40063F6
:10237000D36100206065012384F8513010BD84F8DA
:1023800050302046FFF76AF8BCE7012070472DE97E
:10239000F04383B00446894690461D46FFF748FA4D
:1023A00094F85130012B40F0CD800646DFB2B9F1F0
:1023B000000F00F0C880B8F1000F00F0C48094F85E
:1023C0005030012B00F0C380012384F850300323E8
:1023D00084F8513000236365C4F83090A4F8348049
:1023E000A4F83680A363A387E38763642364A368A8
:1023F000B3F5004F1ED023681A6812F0400F03D1C6
:102400001A6842F040021A60E368B3F5006F1CD00E
:10241000636813B1B8F1010F5FD1226B23681278A2
:102420001A73236B01332363E38E9BB2013B9BB290
:10243000E38652E02268136823F0400313602268A9
:10244000136843F480431360D5E7636813B1B8F1B0
:10245000010F15D1226B23681288DA60236B0233D7
:102460002363E38E9BB2013B9BB2E38608E0FFF758
:10247000DFF9801BA84202D3B5F1FF3F15D1A5B10A
:10248000E38E9BB2002B42D023689A6812F0020FB1
:10249000EDD0226B1288DA60236B02332363E38E64
:1024A0009BB2013B9BB2E386EAE7012384F85130FB
:1024B000002384F85030032745E0226B12781A730A
:1024C000236B01332363B4F836C01FFA8CFC0CF184
:1024D000FF3C1FFA8CFCA4F836C0E38E9BB2B3B16C
:1024E00023689A6812F0020FE7D1FFF7A1F9801B69
:1024F000A84202D3B5F1FF3F01D1002DEDD1012358
:1025000084F85130002384F8503003271BE0324612
:1025100029462046FFF7BEFE08B120236365A36865
:1025200033B901932368DA6801929B680193019B98
:10253000012384F85130002384F85030636D13B9BF
:10254000002700E00227384603B0BDE8F0830227E9
:10255000F9E72DE9F04383B00446884691461F46CB
:102560000A9DFFF765F9064694F851306268012B21
:102570000BD0D9B2B2F5827F40F00481A368002B62
:1025800040F00481042940F00381B8F1000F00F00D
:102590000181B9F1000F00F0FF80002F00F0FE80F4
:1025A00094F85030012B00F0FB80012384F8503068
:1025B00094F85130042B02D0052384F851300023C5
:1025C0006365C4F83890E787A787C4F83080E7864A
:1025D000A7862364636423681A6812F0400F03D14E
:1025E0001A6842F040021A60E368B3F5006F11D038
:1025F00063680BB1012F0BD1226B236812781A7319
:10260000236B01332363E38E9BB2013B9BB2E386D2
:10261000012771E063680BB1012F0BD1226B236896
:102620001288DA60236B02332363E38E9BB2013B93
:102630009BB2E38601271BE023689A6812F0010F22
:102640000ED0E28F92B25AB1DA68A36B1A80A36BF4
:102650000233A363E38F9BB2013B9BB2E387012765
:10266000FFF7E6F8801BA84202D3B5F1FF3F1ED169
:10267000E38E9BB21BB9E38F9BB2002B62D0236821
:102680009A6812F0020FD7D0E28E92B2002AD3D00D
:10269000002FD1D0226B1288DA60236B02332363C0
:1026A000E38E9BB2013B9BB2E3860027C4E7012384
:1026B00084F85130002384F85030032063E023680D
:1026C0009A6812F0010F0ED0E28F92B25AB1DA6816
:1026D000A36B1A70A36B0133A363E38F9BB2013B1F
:1026E0009BB2E3870127FFF7A3F8831BAB4202D31A
:1026F000B5F1FF3F1ED1EDB1E38E9BB213B9E38F6D
:102700009BB2FBB123689A6812F0020FD7D0E28E19
:1027100092B2002AD3D0002FD1D0226B12781A7334
:10272000236B01332363E38E9BB2013B9BB2E386B1
:102730000027C4E7012384F85130002384F8503087
:10274000032020E0324629462046FFF7A3FD90B93A
:10275000A36833B901932368DA6801929B680193F7
:10276000019B012384F85130002384F85030636DBD
:102770004BB1012007E020236365002384F850302B
:10278000012000E0022003B0BDE8F0830220FAE758
:102790000220F8E70120F6E70120F4E70120F2E744
:1027A0000220F0E710B4036A046A24F00104046212
:1027B000846924F0F00C4CEA021223F00A030B4364
:1027C0008261036210BC704710B4036A046A24F08B
:1027D00010040462846924F4704C4CEA023223F041
:1027E000A00343EA01138261036210BC704783684F
:1027F00023F070030B4343F007038360704700002E
:1028000090F83D30012B27D1022380F83D3002683B
:10281000D36843F00103D3600368114A934210D098
:10282000B3F1804F0DD0A2F59432934209D002F556
:102830008062934205D01A6842F001021A600020BB
:1028400070479A6802F00702062A07D01A6842F019
:1028500001021A6000207047012070470020704775
:10286000002C0140704770477047704770B50446B0
:102870000368DE681D6915F0020F10D016F0020F14
:102880000DD06FF002021A610123037703689B6980
:1028900013F0030F5ED0FFF7E6FF0023237715F058
:1028A000040F12D016F0040F0FD023686FF004024B
:1028B0001A610223237723689B6913F4407F4FD06A
:1028C0002046FFF7D0FF0023237715F0080F12D022
:1028D00016F0080F0FD023686FF008021A61042366
:1028E00023772368DB6913F0030F40D02046FFF7FE
:1028F000BAFF0023237715F0100F12D016F0100F37
:102900000FD023686FF010021A6108232377236821
:10291000DB6913F4407F31D02046FFF7A4FF00238A
:10292000237715F0010F02D016F0010F2DD115F00D
:10293000800F02D016F0800F2FD115F0400F02D07B
:1029400016F0400F31D115F0200F02D016F0200FF5
:1029500033D170BDFFF786FF2046FFF785FF9CE768
:102960002046FFF77FFF2046FFF77EFFABE72046BC
:10297000FFF778FF2046FFF777FFBAE72046FFF71B
:1029800071FF2046FFF770FFC9E723686FF001026F
:102990001A612046FEF7ACFCC9E723686FF080029D
:1029A0001A61204600F043F9C7E723686FF0400240
:1029B0001A612046FFF759FFC5E723686FF0200230
:1029C0001A61204600F032F9C3E7000003681F4A8D
:1029D00090420AD0B0F1804F07D0A2F594329042D5
:1029E00003D002F58062904203D123F070034A685D
:1029F0001343164A90420AD0B0F1804F07D0A2F597
:102A00009432904203D002F58062904203D123F4C5
:102A10004073CA68134323F080034A691343036079
:102A20008B68C3620B688362084B98420AD001230B
:102A30004361036913F0010F03D0036923F001031D
:102A4000036170470B690363F1E700BF002C01408D
:102A500040B310B5044690F83D30F3B1022384F83A
:102A60003D30214651F8040BFFF7B0FF012384F8F5
:102A7000463084F83E3084F83F3084F8403084F8A3
:102A8000413084F8423084F8433084F8443084F88C
:102A9000453084F83D30002010BD80F83C30FEF712
:102AA000E7FDDBE70120704710B4846824F47F4C15
:102AB00042EA03220A4342EA0C02826010BC7047D9
:102AC00090F83C30012B78D010B50446012380F8F3
:102AD0003C30022380F83D300268936823F47F4342
:102AE00023F0770393600B68602B4CD023D8402BE6
:102AF00054D011D8202B03D00AD80BB1102B05D1FC
:102B000019462068FFF773FE002028E0012026E028
:102B1000302BF5D0012022E0502B0AD1CA68496839
:102B20000068FFF73FFE50212068FFF760FE00209D
:102B300015E0012013E0B3F5805F3AD0B3F5005FF4
:102B400014D0702B37D1CB684A6889680068FFF7CA
:102B5000ABFF2268936843F0770393600020012362
:102B600084F83D30002384F83C3010BDCB684A68BF
:102B700089680068FFF798FF2268936843F48043F0
:102B800093600020EBE7CA6849680068FFF71CFE05
:102B900060212068FFF72BFE0020E0E7CA68496843
:102BA0000068FFF7FFFD40212068FFF720FE0020AE
:102BB000D5E70020D3E70120D1E7022070470000CD
:102BC00090F83C20012A2CD010B40346012280F852
:102BD0003C20022280F83D2002685068946820F072
:102BE000700C086840EA0C0050601A680E48824277
:102BF0000AD0B2F1804F07D0A0F59430824203D0C2
:102C000000F58060824204D124F0800449682143A9
:102C10009160012283F83D20002083F83C0010BC25
:102C200070470220704700BF002C0140704770477A
:102C3000026802F10C0353E8003F23F490730C3256
:102C400042E800310029F3D1026802F1140353E88D
:102C5000003F23F00103143242E800310029F3D190
:102C6000036B012B05D0202380F84230002303633F
:102C70007047026802F10C0353E8003F23F0100391
:102C80000C3242E800310029F3D1ECE710B50446DC
:102C90000268136923F44053C1680B4313618368CE
:102CA0000269134342691A430168CB6823F4B053A5
:102CB00023F00C031343CB600268536923F4407381
:102CC00081690B4353610268134B9A4220D0FFF78E
:102CD0005DFA024602EB820202EB820263689B000D
:102CE000B2FBF3F20D48A0FB02314909642303FB58
:102CF00011231B013233A0FB03035B0903F0F00235
:102D000002EB011203F00F03216813448B6010BD26
:102D1000FFF74CFA0246DDE7003801401F85EB5112
:102D20002DE9F04383B005460E4617469946DDF877
:102D300028802B681C6836EA04040CBF0124002498
:102D4000BC4228D1B8F1FF3FF3D0FEF771FDA0EBF4
:102D50000900404523D8B8F1000F22D02B68DA686B
:102D600012F0040FE5D0802EE3D0402EE1D01A6897
:102D700012F0080FDDD0002401941A6801925B68FC
:102D80000193019B2846FFF753FF08236B6485F8E6
:102D90004040012000E0002003B0BDE8F0830320A4
:102DA000FAE70320F8E760B310B5044690F8413025
:102DB00013B3242384F841302268D36823F40053EA
:102DC000D3602046FFF762FF2268136923F4904323
:102DD00013612268536923F02A0353612268D36880
:102DE00043F40053D36000206064202384F8413012
:102DF00084F84230606310BD80F84030FEF770FC0C
:102E0000D7E7012070472DE9F04182B01E4690F8C7
:102E10004130202B56D104460D469046002955D00E
:102E20000AB901204FE000234364212380F8413098
:102E3000FEF7FEFC0746A4F82480A4F82680A368C9
:102E4000B3F5805F02D04FF0000814E023692BB384
:102E50004FF000080FE0202384F84130032032E0D7
:102E600038F8023B2268C3F308035360E28C92B245
:102E7000013A92B2E284E38C9BB293B100963B4656
:102E8000002280212046FFF74BFF0028E3D1002DD0
:102E9000E6D015F8012B23685A60E7E7A84600251D
:102EA000E9E700963B46002240212046FFF738FF25
:102EB00018B9202384F8413005E0202384F84130FC
:102EC000032000E0022002B0BDE8F0810120FAE713
:102ED000024A0349034800F0C9B800BF0C000020B3
:102EE0009D5D0008200000200C4B416810B5994200
:102EF000044601D002F052FFA168094B994202D06A
:102F0000204602F04BFFE168064B994204D0204670
:102F1000BDE8104002F042BF10BD00BFD407002042
:102F20003C080020A40800202DE9F84300250423D4
:102F3000304C314A3149DFF8C890DFF8C880324F51
:102F4000324E116004F15C0029460822C4E90335C1
:102F5000C4E90055C4E90555A560656600F004F9AB
:102F600004F15800C4E90749C4E90987E66200F0A2
:102F7000CBF9274B2946082204F1C4006367C4E952
:102F80001A55C4E91E552567C4F8CC50C4F88050C2
:102F900000F0EAF804F1680304F1C000C4F88430DA
:102FA000C4E92298C4E9247600F0AEF9194B294609
:102FB00004F596700822C4F8DC30C4E93455C4E93D
:102FC0003855C4F8D850C4F83451C4F8E85000F06B
:102FD000CBF804F1D003C4E93D87C4F8F09004F5C0
:102FE0009470C4F8FC60C4F8EC30BDE8F84300F01D
:102FF0008BB900BFD40700200C090020D12E000897
:10300000D9300008FD3000083D310008613100086A
:10301000090001001200020010B504460A4800F041
:1030200077F9636B23B9094B094A1B68626323B1C3
:10303000BDE81040044800F06DB9FFF775FFBDE82A
:103040001040014800F066B91C0900200C0900205E
:10305000E92E0008014800F05BB900BF1C09002000
:10306000014800F057B900BF1C0900202DE9F843C2
:103070004FF0000980460F461646D6E90154013D3F
:1030800010D4A389012B08D9B4F90E30013304D030
:1030900021464046B84749EA0009013D6B1C04F14E
:1030A0006804EED13668002EE7D14846BDE8F883C3
:1030B0000FB400B5074A83B004AB106853F8042B73
:1030C0008168019300F052FD03B05DF804EB04B099
:1030D000704700BF1800002010B50C46B1F90E1063
:1030E00000F0B8F8002803DB236D0344236510BD0E
:1030F000A38923F48053A38110BD00BF2DE9F041C3
:103100000C46B1F90C101F46CB05054616460BD4EC
:1031100021F48051A1813B4632462846B4F90E1075
:10312000BDE8F04100F0ACB8B4F90E100223002263
:1031300000F07AF8B4F90C10EAE700BF10B50C46BD
:10314000B1F90E1000F070F8B4F90C30421C0EBF4B
:1031500023F4805343F480532065A38110BD00BF46
:10316000B1F90E1000F04EB8830730B546D0844652
:10317000841805E0634603F8011B9D0703D09C46B5
:10318000A445F7D130BD013A0244A2EB0C02032A58
:1031900029D9CCB204EB04240F2A04EB04442FD920
:1031A000A2F1100C2CF00F0C03F11005AC44C3E994
:1031B0000044C3E9024410336345F8D112F00C0F08
:1031C00002F00F0E18D01A462EF0030C9C44AEF1FC
:1031D000040542F8044B6245FBD125F00304043397
:1031E0000EF003022344002ACCD0C9B21A4403F8DB
:1031F000011B9342FBD130BD7246F4E70346C6E79C
:103200009646E0E7002238B5064D044608462A6097
:10321000FEF7C4F9431C00D038BD2B68002BFBD04F
:10322000236038BD1009002038B50C461146002235
:103230008446074D20462A601A466446FEF7B8F9D0
:10324000431C00D038BD2B68002BFBD0236038BD59
:103250001009002038B50C46114600228446074D5F
:1032600020462A601A466446FEF77AF9431C00D0CD
:1032700038BD2B68002BFBD0236038BD100900201F
:1032800038B50C46114600228446074D20462A6078
:103290001A466446FEF774F9431C00D038BD2B680B
:1032A000002BFBD0236038BD10090020014B1868AB
:1032B000704700BF1800002070B50F4B0F4DAB4298
:1032C000A3EB050607D00024B61055F8043B0134E3
:1032D0009847A642F9D806F01BFA094D094B5E1B28
:1032E000AB424FEAA60606D0002455F8043B013451
:1032F0009847A642F9D870BD349B0008349B00085B
:10330000349B00083C9B0008704700BF704700BF1B
:10331000704700BF704700BF024B13B1024800F076
:1033200005B87047000000007565000800230146DD
:103330001A46184603F0E4B92DE9F843064608207A
:10334000894603F02BF90546DFF89880304600F0F7
:1033500001FCD8F808305F6827F00307A7F11104D3
:10336000A4EB09042C44B4FBF5F4013C05FB04F484
:10337000A54208DC0021304603F0EAF8D8F808300E
:103380003B44984205D0304600F0EAFB0020BDE8FF
:10339000F8833046614203F0DBF801300FD0124A67
:1033A000D8F808303F1B47F001075F6013683046CC
:1033B0001B1B136000F0D4FB0120BDE8F883002143
:1033C000304603F0C5F8D8F80820831A0F2BDADD51
:1033D00043F001035360054B03491B68C01A0860A2
:1033E000D1E700BF50010020240900204401002043
:1033F00000295AD0F8B50C46074600F0ABFB54F84C
:1034000004CC724DA4F108022CF00103D118A86875
:103410004E68884226F003060CF0010E7CD04E6008
:103420008819406800F00100BEF1000F2ED154F859
:10343000084C05F1080C121B23449468644560D0C5
:10344000D2F80CE0C4F80CE0CEF8084000287DD09B
:1034500043F0010050600B60B3F5007F2ED2580995
:10346000D908012383406868013103436B6055F834
:10347000310005EBC103083BC2E9020345F83120E6
:10348000C2603846BDE8F84000F06ABB70B933440A
:1034900005F1080C886843F0010460456ED0C968E6
:1034A000C16088605460D350D6E770474CF001018A
:1034B000B3F5007F44F8041CD350D0D3B3F5206F8C
:1034C0004FEA532144D2990901F1390001F138043E
:1034D000C100681869580838884203D155E08968E6
:1034E000884204D04C6824F003049C42F7D8C86892
:1034F000C2E9021082603846BDE8F840CA6000F0B8
:103500002FBB80BB1E44D1E90213CB60996046F00B
:10351000010353609651B4E71E44BEF1000F07D17A
:1035200054F8083CD21A1E44D2E90213CB609960C9
:1035300046F001035360264BAA601B68B342A0D833
:10354000244B38461968FFF7F7FE9AE73344A1E7A2
:1035500014290DD954291FD8190B01F16F0001F15D
:103560006E04C100B5E743F0010050600B6088E7CE
:1035700001F15C0001F15B04C100AAE7C5E9042286
:10358000C2E902CC5460D3507BE70123A410A340CE
:103590006C6823436B60ABE7B1F5AA7F06D8D90B03
:1035A00001F1780001F17704C10092E740F2545034
:1035B000814206D8990C01F17D0001F17C04C10023
:1035C00087E74FF47E717E2483E700BF500100201F
:1035D00048010020540900202DE9F04F01F10B05AE
:1035E000162D064683B024D8102900F2AE8000F0D4
:1035F000B1FA102518234FF0020CC04F3B445C6811
:10360000A3F10802944200F05F8130466368E268EB
:10361000A16823F00303CA60234491605A68083408
:1036200042F001025A6000F09BFA204603B0BDE868
:10363000F08F35F0070500F18880A94200F28580FF
:1036400000F088FAB5F5FC7FC0F0B1816B0A00F09C
:103650008380042B00F26E81AB0903F1390C03F176
:10366000380E4FEACC00A54F384444680838A042D1
:1036700007D10DE0002AE16880F22081884207D05E
:103680000C46636823F003035A1B0F2AF2DDF4464D
:10369000DFF86C823C69444500F0FD80636823F0EC
:1036A0000309A9EB05030F2B00F38681002BC7E963
:1036B000048880F27081B9F5007FD7F804E080F0CB
:1036C0000A8101234FEAD9014FEA5919194403FA33
:1036D00009F357F831204EEA030E07EBC103083B0C
:1036E000A260E360C7F804E047F83140D4600120ED
:1036F0004FEAAC039840704535D810EA0E0F07D159
:103700002CF0030C400010EA0E0F0CF1040CF9D061
:1037100007EBCC0AD646E146DEF80C300BE05968E0
:103720001C4621F003014A1B0F2ADB6800F30F81BE
:10373000002A80F223819E45F1D109F1010919F097
:10374000030F0EF1080EE7D160E10C233360002473
:10375000204603B0BDE8F08F4FF400704FF0400CEE
:103760004FF03F0E7FE7BC68636823F00309A9456B
:1037700004D3A9EB05030F2B00F39080614B0820C5
:103780001B6803F1100804EB0903009302F006FF25
:103790005D4A83461368A844013305D008F1FF3819
:1037A0008044434203EA08084146304602F0D0FE16
:1037B000B0F1FF3F8246544A00F0198104EB09033F
:1037C000834200F21281514B0BF1FF3C18684044D8
:1037D000186000F068811168013100F0708104EB1D
:1037E0000902AAEB020202441A601AF00702CDE9AC
:1037F000002300F02A81C2F108029244D04408EA72
:103800000C015A44521A02EA0C0B5946304602F097
:103810009FFE421C019B00F06F81A0EB0A0000EBB1
:103820000B08186848F001025844BC42C7F808A0C9
:103830001860CAF8042017D0B9F10F0F40F2428186
:103840004FF0050C6168A9F10C0222F0070201F0AB
:103850000101114361600F2A04EB0201C1E901CCAF
:1038600000F25281DAF804205446294B196881424B
:1038700038BF1860274B1968814238BF186022F0A2
:103880000308A845A8EB050301D30F2B06DC30463F
:1038900000F066F95BE7D7F804E028E7621943F027
:1038A000010345F0010565603046BA600834536095
:1038B00000F056F9204603B0BDE8F08FA26830460C
:1038C000D16023448A60A9E6DC68A3427FF49DAE00
:1038D0000CF1020CDCE6B9F5206F4FEA59227DD3DA
:1038E000142A00F2C58002F15C03DB005B32F91898
:1038F000FB580839994212D19EE000BF50010020C8
:10390000580100205409002044010020240900200F
:10391000500900204C0900209B68994204D05A6845
:1039200022F003024A45F7D8D968C4E902318C6015
:10393000DC60DCE6142B5DD9542B00F2A2802B0B4B
:1039400003F16F0C03F16E0E4FEACC008BE6D4F856
:1039500008C03046661945F001056560CCF80C30AA
:10396000C3F808C042F00103C7E90466C6E902884B
:103970007360625000F0F4F80834E9E621444A68C4
:10398000304642F001024A6054F8082FD3609A6032
:1039900000F0E6F8DCE6A144D9F80430304643F004
:1039A0000103C9F8043000F0DBF80834D0E64FEA30
:1039B000D50C05F1080320E6621943F0010145F03A
:1039C000010565603046C7E90422C2E902885160FA
:1039D00044F8093000F0C4F80834B9E64FEA991207
:1039E00002F13903DB00383281E7BC4254D0BC68B5
:1039F000626844E703F15C0C03F15B0E4FEACC0014
:103A000031E65AF80839534540F09F801CF0030F07
:103A10000CF1FF3CF5D17B6823EA00037B6040009A
:103A200098423FF6A0AE18B99DE6400009F104099E
:103A30001842FAD0CC466BE60120921000FA02F24E
:103A40004EEA020EC7F804E06FE70AEB080202EA4A
:103A50000C02ABEB020202EA0C0B5946304602F0B4
:103A600077FD431C019B7FF4D8AEDDF800B0D8E6AB
:103A7000542A2BD84FEA193202F16F03DB006E3261
:103A800035E7B3F5AA7F2BD8EB0B03F1780C03F1E4
:103A9000770E4FEACC00E6E52D4B0BF1FF3C1868A2
:103AA0004044186097E61AEA0C0F7FF494AED7F8FA
:103AB00008A0C84448F00102CAF80420D4E6C2F8BD
:103AC00000A092E60123CAF80430E0E6B2F5AA7F2E
:103AD00025D84FEAD93202F17803DB00773206E7C6
:103AE00040F25452934225D8AB0C03F17D0C03F104
:103AF0007C0E4FEACC00B6E5009A4FF0000B083A76
:103B00009044A8EB0A088CE6304604F108010093C3
:103B1000FFF76EFC009BD7F808A01868A2E640F2F9
:103B200054539A420DD84FEA994202F17D03DB00CB
:103B30007C32DCE64FF47E704FF07F0C4FF07E0E4F
:103B400091E54FF47E737E22D1E67B6867E700BF84
:103B5000240900200148FFF7DBBB00BF1409002047
:103B60000148FFF7D7BB00BF140900202DE9F04F33
:103B7000D7B01C469246CDE909100E93054602F0D7
:103B8000E3FC02681046189202F056FD17901DB132
:103B90006B6B002B01F0A781099B5A6EB3F90C30B7
:103BA000D00740F1BE85990400F15F87099943F47D
:103BB000005322F400528B814A661BB21D0740F16C
:103BC0008C85099A1269002A00F0878503F01A0291
:103BD0000A2A00F0918500232DAA19461446CDE942
:103BE0002B332A92129300220023CDF818A0CDE99E
:103BF0001423069BCDE91B111B7819911A910C9186
:103C0000002B00F0F780069E04E016F8013F002B21
:103C100000F07B84252BF8D1069BF51A40F07984BF
:103C20003378002B00F0E68000234FF0FF329B46F4
:103C300096F801A00892751C8DF88B300B93013516
:103C4000AAF120035A2B5CD8DFE813F0E6025B00F0
:103C50005B00E1025B005B005B00C2025B005B009B
:103C60002D019A025B009502A5025B00A002DB0019
:103C7000DB00DB00DB00DB00DB00DB00DB00DB006C
:103C80005B005B005B005B005B005B005B00EA00CD
:103C90005B006F01F102EA00EA00EA005B005B00F2
:103CA0005B005B000A045B005B00BB035B005B0026
:103CB0005B003D015B0058025B005B0001085B009C
:103CC0005B005B005B005B005B005B005B00EA008D
:103CD0005B006F012F02EA00EA00EA0084032F0272
:103CE00038015B00AE035B0050043C041004380153
:103CF0005B003D01350191035B005B0077085B00D1
:103D000035010F95BAF1000F74D000230127CDE9DA
:103D100007733DAA8DF8F4A006928DF88B300D93B1
:103D20001693139310932C9D1BF08403294600F0E7
:103D300016819DF88B20FAB14FF000082B980122D4
:103D400001300135626007280DF18B02CDE92B05AA
:103D5000226000F3F7840834B8F1000F0CD02B98E0
:103D60000222013002356260072823AACDE92B0523
:103D7000226000F3F5840834802B00F0DC83089B7C
:103D8000A3EB0708B8F1000F00F3FD801BF4807F60
:103D900040F03781069B3D4423602B9B67600133D5
:103DA000072B2C952B9300F3338408341BF0040F5E
:103DB00005D00B9B079A9F1A002F00F3DF84DDE9E3
:103DC0000B2307998A42ACBF9B185B180C93002DFC
:103DD00040F0F68300232B930D9B1BB10D990A989D
:103DE000FFF706FB2DAC0F9B0693069B1B78002B61
:103DF0007FF409AF2C9B002B41F0908200232B9382
:103E0000ECE30022AAF1300315F801AB02EB8202C9
:103E100003EB4202AAF13003092BF5D90B920FE70D
:103E20000E9B4FF0FF32073323F00703F3E80267DE
:103E30000E9327F0004321932096DDE92089AA4BB9
:103E400040464946CDE914670F95FDF7ABF80028C9
:103E500040F0A2864FF0FF3240464946A24BFDF7A4
:103E600083F80546002840F097860022002330465C
:103E700039462BF0800BFDF76DF8002841F02A83BE
:103E8000BAF1470FCCBF994A994A9DF88B300692F8
:103E9000002B41F0608603270D930893169313932C
:103EA000109307973FE70E9B53F8042B002A0B92C1
:103EB0000E93C0F25D8195F800A0C0E695F800A0D1
:103EC0004BF0200BBBE64FF000080F950E9D8DF8D0
:103ED0008B8055F8043B0693002B00F06487089B09
:103EE000002BC0F26F87069E1A464146304602F00C
:103EF00063FB9DF88B300D90002801F0C584871B73
:103F000027EAE7720792002B00F068871346013317
:103F1000CDF820800E950793CDF83480CDF85880E9
:103F2000CDF84C80CDF84080FDE600223DA9012768
:103F3000069111460E9B8DF88B200D9253F8042BA1
:103F40000F952C9D0E931BF08403089116911391ED
:103F500010918DF8F420294607977FF4EAAE0B9A6A
:103F60000798A2EB0008B8F1000F00F3F0849DF869
:103F70008B20002A7FF4E0AE089BA3EB0708B8F182
:103F8000000F7FF703AFB8F1100F2B9A594E28DDC1
:103F900023462946DDE909544FF0100906E0A8F14F
:103FA0001008B8F1100F03F1080318DD0132514871
:103FB0001031072AC3E90009CDE92B21EFDD29469D
:103FC00020462AAA01F0DAFE002840F00183DDE94C
:103FD0002B21A8F11008B8F1100F2DABE6DC1C4620
:103FE0000D4601324544072ACDE92B252660C4F849
:103FF000048000F32E851BF4807F04F108043FF455
:10400000C9AEBAF1650F40F30E83DDE91401002259
:104010000023FCF795FF002800F0FE830123636076
:104020002B9B354A01330135072B2C952B932260AE
:1040300000F368870834249B129A934280F2198512
:10404000179B189A1D44C4E900232B9B2C95013320
:10405000072B2B9300F39B860834129B5F1E002FC7
:104060007FF7A4AE102F2B9B40F3C882DDE909A98E
:104070004FF010081F4E04E00834103F102F40F39B
:10408000BE8201331035072BC4E90068CDE92B351A
:10409000F2DD514648462AAA01F070FE002840F0A1
:1040A0009782DDE92B352DACE7E71BF0200F0F954C
:1040B00000F054850E9B073323F007031A465B6814
:1040C00052F8085B98460E92002BC0F2C380089A03
:1040D000002A2CDB55EA08032BF0800B27D1002A9D
:1040E00000F0D28730232AE0FFFFEF7F58970008C7
:1040F00054970008EC980008949700081BF0200FD4
:104100000F954BF0100100F002850E9B073323F052
:1041100007031A46D3F8048000238DF88B30089BE0
:1041200052F8085B002B0E9280F2A9848B460A2D70
:1041300078F1000380F09F8005F13003DBB28DF849
:104140005731089B0127012BB8BF01230DF25712ED
:1041500007939DF88B300692002B01F09E85079BFC
:104160000133079300230D93169313931093DAE50D
:104170000B9B5B420B9395F800A04BF0040B5EE5A4
:104180002B2395F800A08DF88B3058E595F800A00A
:104190004BF0800B53E5294611F801ABBAF12A0F19
:1041A00001F06085AAF13003092B98BF002201F2CB
:1041B0007A8311F801AB02EB820203EB4202AAF10F
:1041C0003003092BF5D942EAE2730D46089337E52F
:1041D0000A9F384602F0B8F9436818461A9302F06D
:1041E0002BFA1C900646384602F0AEF9826895F824
:1041F00000A01B92002E3FF422AD002A3FF41FAD19
:104200001378002B3FF41BAD4BF4806B17E595F84A
:1042100000A04BF0010B12E59DF88B3095F800A043
:10422000002B7FF40CAD20238DF88B3007E51BF0BD
:10423000200F0F954BF0100340F0A5840E9A043226
:104240000E999B460D680E924FEAE5784346002B87
:10425000BFF63DAF2D238DF88B30089B6D4268EB88
:104260004808002BFFF663AF0A2D78F100032BF00E
:10427000800BFFF461AFCDE9064A0027DFF8E0923A
:10428000DDF86CA056A90BF4806624E015EB08035A
:1042900043F10003A9FB032020F0030202EB90028C
:1042A0009B1A4FF0CC32AE464446EB1A02FB03F2A7
:1042B00068F1000809FB0822A3FB0953BEF10A0FAD
:1042C00013444FEA550574F10004614645EAC3758D
:1042D0004FEA53082BD315EB080343F10003A9FB66
:1042E000032020F0030202EB90029B1AEB1AA3FBBF
:1042F000093268F1000009FB00225B0843EAC2733F
:1043000003EB8303A5EB43033033013701F1FF3C9B
:1043100001F8013C002EB9D09AF80030BB42B5D16B
:10432000FF2FB3D00A2D78F1000381F08980624617
:1043300056AB12979F1A089B069CBB42B8BF3B46E0
:10434000CDF86CA0CDF818C0DDF81CA007939DF83F
:104350008B3001E795F800A0BAF1680F03BF95F81C
:1043600001A04BF4007B01354BF0400B67E41BF0E0
:10437000200F0F9540F004840E9A1BF0100852F89D
:10438000043B41F0B9821BF0400100F049869DB228
:10439000089B8DF88B80002B04DB2BF0800B002D0D
:1043A00000F0C7830E92C2E695F800A0BAF16C0F38
:1043B00003BF95F801A04BF0200B01354BF0100B1B
:1043C0003DE41BF0200F0F954BF0100000F0BF8371
:1043D0000E9B073323F007031A46596852F8083B2F
:1043E0000E9200228DF88B20089A002A17DB53EAE0
:1043F000010220F4906B14D1089A92B910F00107D1
:10440000079700F0518530238DF85731089B16939C
:10441000139310930D930DF25713069383E420F436
:10442000806B56AD03F00702DB0843EA4173C9080D
:10443000303253EA0106284605F8012DF2D11BF06F
:1044400001010695109140F0C58256AB5F1B089B99
:104450001691BB42B8BF3B46139107930D9162E49E
:1044600095F800A04BF0080BFFF7E9BB002147F6D9
:1044700030030E98089E50F8042B8E42ADF88C3015
:104480000F9513468DF88B10C0F25A842BF08005DF
:1044900045F0020B002A40F05185002E00F04186C5
:1044A00030238DF857310DF25713944601274FF002
:1044B000780A0E90079616920D9213921092069318
:1044C00000F01FBC1BF0200F0F9540F01E830E9ACA
:1044D0001BF0100152F8043B41F011821BF0400028
:1044E00000F0BA8558460E929BB27AE70E9A1BF0FE
:1044F000200F0F9502F1040300F0F68212680C9968
:104500001160C91751600E936DE4069BF51A3FF4D4
:1045100071AC069B2B9AC4E900352C9B01322B44CD
:10452000072A2C932B9200F3CF8008340C9B2B444A
:104530000C93FFF775BB0B9B079AA3EB0208B8F12E
:10454000000F7FF71CACB8F1100F2B9A41F30E82CD
:1045500023462946DDE909544FF01009014E0AE0CF
:10456000CDCCCCCCEC980008A8F11008B8F1100F15
:1045700003F1080315DD01321031072AC3E9006990
:10458000CDE92B21F0DD294620462AAA01F0F6FBD1
:10459000F0B9DDE92B21A8F11008B8F1100F2DAB0F
:1045A000E9DC1C460D4601324544072ACDE92B259E
:1045B0002660C4F8048000F3DE830834FFF7DFBB15
:1045C0002AAADDE9091001F0D9FB00283FF402AC6A
:1045D0000D9B1BB119460A98FEF70AFF099B5A6EFC
:1045E000B3F90C30D10702D49A0540F155845B062B
:1045F00000F1A4800C9857B0BDE8F08F844E0133D1
:104600003D44072B26606760CDE92B357FF7CDABA6
:10461000DDE909102AAA01F0B1FB0028D8D12C9DB0
:104620002DACFFF7C3BB2B9B013503F10108129B97
:10463000CDE92B85012B069B04F1080923604FF07F
:104640000103636040F36E81B8F1070F00F3FD834F
:10465000179B08F10108189A1D44B8F1070FC9E922
:104660000023CDE92B8500F3FE8309F10809129B95
:104670000022DDE914015C1E0023FCF761FC002828
:1046800040F0BF81069F08F1010801372544B8F1C9
:10469000070FCDE92B85C9F80070C9F8044000F375
:1046A000498109F10809199A08F101031544C9F86B
:1046B0000420072B26AACDE92B35C9F80020A7DC5A
:1046C00009F10804FFF772BB2AAADDE9091001F01D
:1046D00055FB002882D12DAC28E7099D0A98294670
:1046E00001F0E6FD002841F08282B5F90C3003F0BC
:1046F0001A020A2A7FF46FAA0999B1F90E20002A3A
:10470000FFF669AA4A6ED20702D49B0540F11D86C6
:10471000DDE909102346524657B0BDE8F04F01F0DD
:10472000EBBA9F0563D59E047FF540AA95047FF5FB
:1047300045AA099B9B899E0541F18C824FF0FF336E
:104740000C9357E72AAADDE909101D9301F016FB27
:1047500000287FF43DAF2C9D1D9B2DACFFF7FCBACC
:104760002AAADDE909101D9301F008FB00287FF457
:104770002FAF2C9D1D9B2DACFFF7FEBA102F2B9B4E
:1047800041F3E380DDE909A94FF01008214E04E070
:10479000103F102F04F1080415DD01331035072BED
:1047A000C4E90068CDE92B35F2DD514648462AAA16
:1047B00001F0E4FA00287FF40BAFDDE92B35103F60
:1047C000102F2DACE9DC01333D44072BC4E9006711
:1047D000CDE92B357FF7F3AADDE909102AAA01F00C
:1047E000CDFA00287FF4F4AE2C9DFFF7E8BA099DBE
:1047F000A86DFEF78DFDB5F90C306A6E98047FF553
:10480000D5A991047FF5DAA9D70792D596E700BF1D
:10481000EC980008FC9800082499002940F33F8197
:10482000DDF84090129B9945A8BF9946B9F1000F59
:104830000BDD069B4D44C4E900392B9B2C950133BD
:10484000072B2B9300F321870834DDF84080B9F162
:10485000000FA8BFA8EB0908B8F1000F00F3788398
:10486000DDF840A0069B1BF4806F9A4440F052860E
:10487000249A129B9A4203DB1BF0010F00F0628422
:10488000179B18991D44C4E900132B9B2C950133E9
:10489000072B2B9300F3AA870834129BDDF81880AE
:1048A0009F1A9844A8EB0A08B845A8BFB846B8F1C3
:1048B000000F0CDD2B9B45440133072BC4F800A0EF
:1048C000C4F804802C952B9300F3F2870834B8F1D8
:1048D000000FA8BFA7EB0807002F7FF767AA102FCC
:1048E0002B9B7FF78BAEDDE909A94FF01008A74E8F
:1048F00004E00834103F102F7FF781AE01331035EC
:10490000072BC4E90068CDE92B35F2DD5146484656
:104910002AAA01F033FA00287FF45AAEDDE92B35DC
:104920002DACE7E71BF0010F7FF48EAEB8F1070F57
:104930007FF7B9AEDDE909102AAA01F01FFA0028B5
:104940007FF446AEDDE92B850DF1B409ABE62B9A79
:10495000B8F1100F40F395872046DDE9094910258D
:104960008B4E1D9306E0A8F11008B8F1100F00F16E
:10497000080017DD01321031072AC0E90065CDE9D2
:104980002B21F0DD214648462AAA01F0F7F900283C
:104990007FF41EAEDDE92B21A8F11008B8F1100F4D
:1049A0002DA8E7DC04461D9B501C08EB01050728D9
:1049B000CDE92B052660C4F8048000F37F829DF8C2
:1049C0008B200834002A66D1002B3FF4D8A9134667
:1049D000FFF7C6B9302A00F0BF81302306990238AC
:1049E00001F8013C56AB1F1A089B0022BB42B8BF1E
:1049F0003B460D9206900793169213921092FFF782
:104A000092B9129B012B7FF74EAE112B41F313810C
:104A10004346DDE909A810275C4E05E009F10809C5
:104A2000103C102C40F3E18201331035072BC9E90B
:104A30000067CDE92B35F1DD514640462AAA01F049
:104A40009DF900287FF4C4ADDDE92B350DF1B409E3
:104A5000E6E72AAADDE9091001F090F900287FF4C1
:104A6000B7AD2C9D2DACFFF791B992047FF5A6A8A8
:104A700064E61BF0010F3FF499A9FFF7E1BA55EA8C
:104A8000080321F0800B7FF452AB089B002B54D01D
:104A90000025FFF751BB98460023FFF750B90123CB
:104AA00063602B9B3B4A01330135072B2C952B93DD
:104AB000226000F3DD850834002940F06E82129AEE
:104AC0000BF0010313433FF471A9179B189A1D447F
:104AD000C4E900232B9B2C950133072B2B9300F368
:104AE000278404F1080269E21BF0100F40F01682DF
:104AF0001BF0400F40F031831BF4007F00F00E826A
:104B00000E9A0C9912681170FDE4584660E40E9BF1
:104B10001A1D4FF000080E9B08981B6840451D4663
:104B20008DF88B80C0F2EA8421F0800B002B7FF49B
:104B300039AC089B0E92002BAAD11F4616931393F3
:104B4000109307930D9356AB0693FFF7ECB80E9BAB
:104B50001A1D0E9B00211B680E9242E40E9A1BF058
:104B6000100F52F8045B40F0BA861BF0400F0E9213
:104B700000F04A8245F3C03843462DB2FFF7A4BA8D
:104B80005946FFF7C2BA9B46FFF794BAEC98000863
:104B9000FC98000894970008DDE9140102460B46D2
:104BA000FCF700FA8046002840F05D87BAF1610FFB
:104BB00000F0BB85BAF1410F00F0E382089B01339E
:104BC00000F03D87BAF1670F159B4BF4807600F03B
:104BD0001787BAF1470F00F013870D90DDE9141223
:104BE000002A1346C0F2D486DDE914234FF00008F2
:104BF000CDE91E23AAF14103252B00F24D82DFE807
:104C000013F0DA064B024B024B02B50308044B02C9
:104C10004B024B024B024B024B024B024B024B022C
:104C20004B024B024B024B024B024B024B024B021C
:104C30004B024B024B024B024B024B024B024B020C
:104C40004B02DA064B024B024B02B5030804B84A8A
:104C50000F951BF020010E9800F0EA80073020F03D
:104C60000700416850F8083B1BF0010500F0BE80CA
:104C700053EA010500F03C8130258DF88C50002569
:104C80008DF88B50089D8DF88DA0002DC0F2F98015
:104C90002BF4906545F0020B03F00F05575D0BF008
:104CA00002050E901B0943EA0173080953EA11112A
:104CB0008DF8577118BF0DF2571101F00C8003F0F9
:104CC0000F06965D1B0943EA0073000901F8016DA8
:104CD00053EA0006F3D10691069A56AB9F1A089B39
:104CE0004FF0000CBB42B8BF3B46CDF834C0079331
:104CF000CDF858C0CDF84CC0CDF840C0002D3FF4E1
:104D000012A8DDE92B05079B2946023307931BF008
:104D10008403024607D10B9EDDF81CE0A6EB0E08CB
:104D2000B8F1000F07DCBCF1000F3FF419A84FF0F9
:104D30000208FFF704B802230AE67E4A0F9588E7C7
:104D40000E907C4803F00F07022502464FF0780AC8
:104D5000C75D4BF0020BA5E7069A56AB9F1A089B5E
:104D60000021BB42B8BF3B460D91079316911391AA
:104D70001091FEF7D8BF2AAADDE9091000F0FEFF66
:104D800000287FF425AC2C9D2DACFEF7F8BF2AAA95
:104D9000DDE9091000F0F2FF00287FF419AC2C9D2A
:104DA0002DACFFF75AB9089F634A062F28BF062784
:104DB0000E95079708930D930692169313931093ED
:104DC000FEF7B1BF069801F037FC9DF88B3020EA62
:104DD000E07207460792002B7FF498A8CDE90D35C5
:104DE0000893169313931093FEF79DBF8DF88B5085
:104DF000089D002D47DB53EA01052BF4906B7FF4EF
:104E00004BAF0899002900F08F8013780129B8BFB3
:104E100001218DF8573100230DF2571201270E9012
:104E20000D9307910692169313931093FEF77BBF91
:104E30001BF0100550F8043B7FF416AF1BF0400741
:104E400000F0048129469BB20EE72AAADDE9091089
:104E500000F094FF00287FF4BBABDDE92B850DF15A
:104E6000B409FFF7F5BB2AAADDE9091000F086FFB7
:104E700000287FF4ADABDDE92B850DF1B409FFF718
:104E8000F6BB4BF0020B0E9003F00F000BF0020587
:104E9000175C2BF4806B05E7099CA06DFEF73AFACE
:104EA000B4F90C30FFF7A3BB089B1F46169313936E
:104EB00010930D9356AB0693FEF735BF2AAADDE992
:104EC00009101D9300F05AFF00287FF481AB9DF874
:104ED0008B202C9D1D9B002A7FD098462DAC03462D
:104EE0002B98FEF72CBF0A98FEF796F8FEF754BEF3
:104EF0000025089B8DF88B50AB42C0F297822BF4B3
:104F0000906B7EE72AAADDE9091000F037FF002840
:104F10007FF45EAB2C9D2DACFFF78DB80E9A0C99EB
:104F200012681160FFF7EFBA089B0E9005E600BF0C
:104F300078970008649700088C970008AE4F03F03C
:104F40000F0C3A4602254FF0780A17F80C70A8E6C5
:104F5000B8F1100F2B9B40F38980DDE909A74FF0D2
:104F60001009A64E05E00834A8F11008B8F1100F9A
:104F70007DDD01331035072BC4E90069CDE92B3500
:104F8000F1DD514638462AAA00F0F8FE00287FF4E9
:104F90001FABDDE92B352DACE6E7179B189A1D44B6
:104FA000C4E900232B9B2C950133072B2B9300F393
:104FB000BF8104F108020029C0F2A48406990133DC
:104FC00011601299072B0D44CDE92B3551603FF745
:104FD0001FAB02F10804FEF7E9BE002B00F0AF8022
:104FE00013462B982DACFEF7BBBE984608F101087E
:104FF0002544B8F1070FCDE92B85C9F80060C9F841
:1050000004407FF74EAB95E41BF4007F14BF45F3DB
:10501000C0184FEAE578434618BF6DB2FFF754B8A1
:105020001BF4007840F0A38008991D4600298DF8F4
:105030008B80FFF6B7A92BF0800B002B7FF4B2A971
:105040000B460E9200297FF423AD76E51BF4007128
:105050001CBF3946DBB207E61BF4007100F0838009
:1050600001460E925846DBB2FFF7BBB9634E0133DF
:105070004544072BCDE92B352660C4F8048000F3A6
:1050800069810834FFF7ECBB56AB069317469DF8D1
:105090008B300792FFF760B8089B0A9801930223B0
:1050A000009328AB049325AB039324AB0293DDE973
:1050B0001E2301F005FC06901BF0010F40F0078451
:1050C000069A289B9B1A249A1293D01C1092C0F225
:1050D0009A8308999142C0F26683934200F3028456
:1050E000109F1BF4806F03D0109B002B00F3D8841B
:1050F000B3464FF0670A27EAE77307930023169336
:1051000013930BF00205B8F1000F00F086814FF009
:105110002D0C8DF88BC0079B013307930023089358
:10512000ECE5089B4FF0780A1F469C4616931393B4
:10513000109307930D9356AB0E900693E1E52DACBB
:10514000FEF71DBEDDF818809F1A9844A8EB0A08E8
:10515000B845A8BFB846FFF7BABB0E9A0C991268BB
:105160001180FFF7D0B958460E92FFF73AB9DDB279
:10517000089B8846002B8DF88B10BFF60EA9FFF711
:1051800011B945F63003ADF88C30089B4BF0020B9B
:10519000632B00F3EE83DDE91412002AC0F20084D1
:1051A000DDE9140124AA01F075FA00224FF07F53C3
:1051B000FBF75EFC02460B46CDE9102300220023DC
:1051C000FBF7BEFE08B1012324934FF000080C4BFF
:1051D000CDF8348007933DAB0693089B069D089459
:1051E000CDF848A0CDF84C80AA46DDE91045DDF8A1
:1051F0001C8003F1FF390DE064970008EC9800086B
:105200007897000800220023FBF79AFE002840F060
:105210007B84B1460022BB4B20462946FBF728FC85
:105220000D460446FBF7D4FE0746FBF7E3F80246BB
:105230000B4620462946FAF78FFF18F80730B9F1D8
:10524000FF3F524604460D4609F1FF360AF8013B7E
:10525000D8D11646AC4B0022CDE910455546DDE9C4
:1052600012A8089CFBF794FE40B9DDE9100100226A
:10527000A54BFBF765FED8B1FF0719D5079B28960C
:10528000D97B15F8012C2B46914209D1302003F827
:10529000010C289B5A1E289213F8012C8A42F6D042
:1052A000392A0BBF079A0132927AD2B203F8012C45
:1052B000069B249AEB1A1293BAF1610F02F1FF33A5
:1052C000249300F0708450214FF0410A002B8DF898
:1052D0009810C0F258842B22092B8DF8992000F3E6
:1052E000A2820DF19A02303302F8013B26ABD31AA9
:1052F0001993129B199A012B03EB020740F37B834E
:10530000179B1F442BF4806343F4807B002327EA20
:10531000E7721693079213931093F2E62AAADDE937
:10532000091000F02BFD00283EF468ADFFF756B9D8
:105330002AAADDE9091000F021FD00287FF448A920
:10534000DDE92B3524992DAA35E6886DFDF7E2FFBE
:10535000FFF7DEB92AAADDE9091000F00FFD0028E9
:105360007FF436A92C9D2DACFFF77ABA0223089A58
:1053700001321292009328AB129D049325AB039344
:1053800024AB019502930A98DDE91E2301F098FAF7
:105390002AF02009B9F1460F0690054400F09181EA
:1053A000DDE91E0100220023FBF7CAFD002840F0C2
:1053B000C483289BAB4238BF4FF0450980F0BA83C5
:1053C00030215A1C28921970289BAB42F9D3069AB7
:1053D000B9F1470FA3EB02031293249B109300F043
:1053E000DB81B9F1460F00F08881109B8DF898A001
:1053F000013B002B2493C0F20D822B22092B8DF848
:10540000992000F3108230228DF89A200DF19B0232
:1054100069E7089B12930323ACE79DF88BC0BCF1AE
:10542000000F7FF478AECDF8208067E413780E90FB
:105430008DF857310DF257132BF4806B06934BE424
:105440001C9A1A99ACEB0204204601F047F89AF82E
:1054500001300BB10AF1010A4FF0CC3101272B4A80
:1054600015EB080343F10003A2FB030E2EF003002B
:1054700000EB9E001B1AEB1A03FB01F168F1000818
:10548000A3FB023002FB0811FB40014443EAC17553
:1054900021FA07F815EB080343F10003A2FB031000
:1054A00020F0030101EB90015B1AEB1AA3FB023120
:1054B00068F1000002FB0012FB4043EAC27303EBF9
:1054C0008303A5EB4303303304F1FF3C04F8013CB4
:1054D000FEF722BF2D238DF88B300423BAF1470F3E
:1054E0004FF003070D95079340F3F781084B0693A0
:1054F0000895169513951095FEF715BC8B460E92E0
:10550000FEF715BE000030400000E03FCDCCCCCC13
:1055100058970008129A13981344002829460893B4
:105520005546CDF874B02246DDE909BAAD4F1C9B53
:10553000DDF86C90DDF858802FDDB8F1000F40F3F6
:10554000828008F1FF381A981944C2E900032B98A9
:105550002C91013007282B9068DC0832089C99F8C0
:105560000000641B8442A8BF0446002C0BDD2B986E
:10557000214401300728C2E900542C912B9068DCAB
:1055800099F800000832002CB4BF0646061B002E16
:1055900015DC054413980028CFDCB8F1000FD0DCEF
:1055A000AA461446069B129A0D4613449A4528BFF4
:1055B0009A46DDF874B0CDF86C90FFF759B9102E0B
:1055C0002B9840F3D38210951024354616933E460F
:1055D00004E0103D102D02F1080215DD01301031FC
:1055E0000728C2E90074CDE92B01F2DD5946504687
:1055F0002AAA00F0C3FB00287EF4EAAFDDE92B0104
:10560000103D102D2DAAE9DCB446169B2E46109DA8
:10561000013031440728CDE92B01C2F800C05660A3
:105620003FDC99F8000008320544B3E7594650467C
:105630002AAA109300F0A2FB00287EF4C9AF2C998F
:10564000109B2DAA8AE7139809F1FF3901381390AE
:1056500079E7594650462AAA109300F08FFB00289C
:105660007EF4B6AF99F800002C99109B2DAA8AE71A
:105670002AAADDE9091000F081FB00287EF4A8AF1A
:1056800024992C9D2DACFFF717BA2AAADDE9091041
:1056900000F074FB00287EF49BAF2C9D2DACFFF72F
:1056A000D4B8594650462AAA109300F067FB002848
:1056B0007EF48EAF99F800002C99109B2DAA05441A
:1056C00068E7069B1B78302B00F0C081249B1D44AB
:1056D0000022DDE91E010023FBF732FC002852D135
:1056E000289BAB42FFF46CAE069AB9F1470FA3EBCF
:1056F00002031293249B10934ED01099089A0BF03A
:105700000103002943EA020340F36282002B40F0C8
:1057100044824FF0660A109F1BF4806F40F0C281F4
:1057200027EAE773B3460793E8E447F63003ADF89A
:105730008C30089B4BF0020B632B00F31A81DDE9E0
:105740001412002AC0F22C81DDE9140124AA00F011
:10575000A1FF00224FF07F53FBF78AF902460B4668
:10576000CDE9102300230022FBF7EAFB03460028C3
:1057700000F05882012324933DABCDF8348006938A
:10578000194B079329E5249B1093069BB9F1470F0A
:10579000A5EB03031293B0D1109B033333DB089BBB
:1057A000109A934210DA109BAAF1020A013B002BD7
:1057B0008DF898A02493BFF620AE2D22109B8DF873
:1057C0009920C3F101031EE6129B109A934200F345
:1057D00089801BF0010F3FF483AC109B179A9F1830
:1057E0007FE400BFEC980008649700082AAADDE96E
:1057F000091000F0C3FA00287EF4EAAE249A2C9D2A
:105800002DACFFF74AB8109BAAF1020A013B8DF8B4
:1058100098A024932D22109B8DF89920C3F10103A9
:10582000092B7FF7F0AD0DF1A70C6246DFF8C0E25F
:105830001D461046AEFB0321C90801EB8102A3EB14
:1058400042023032632D00F8012C0B4600F1FF328A
:10585000EEDC303302F8013C831E634580F00E829B
:105860000DF1990213F8011B634502F8011FF9D1EC
:1058700003F5AC736B44BC3B1B1A26AA9B1A199305
:1058800037E59C4EFFF790B80E95002B00F0B080E6
:10589000089B1F46013307930D9B089316931393A0
:1058A0001093FEF740BA00230D460893FEF7C8B9DF
:1058B0002AAADDE9091000F061FA00287EF488AE1A
:1058C000249F129B2C9D2DACDF1BFFF700B8069B7D
:1058D000089A4FF047099D18FAE6874B07E65B46A2
:1058E000FEF7AEBC129B179A9F18109B002B40F33B
:1058F00027814FF0670A0FE75946FFF70AB9584664
:10590000FFF727B9C1F10008103121DADDE9099765
:1059100010247A4E05E00832A8F11008B8F1100FF3
:1059200017DD01331035072BC2E90064CDE92B35B3
:10593000F1DD494638462AAA00F020FA00287EF414
:1059400047AEDDE92B352DAAE6E76A4EFEF73BBFF1
:105950006A4E01334544072BCDE92B351660C2F85A
:10596000048000F352810832FFF728BB634EFEF734
:105970001ABE089B0A98591CFDF72EFE06900028B7
:1059800000F0A281069B4BF480760D93FFF726B9B9
:1059900003F100434FF02D081E911F93FFF72AB922
:1059A0001346CDF834804FF02D081E9103F10043CB
:1059B0003DA906911F9324AADDE91E0100F06AFEAD
:1059C00000224FF07F53FBF753F802460B46CDE918
:1059D000102300220023FBF7B3FA08B1012324931C
:1059E000BAF1610F3FF4CCAE454B0793FFF7F5BB1F
:1059F000089F079750E71BF0010F3FF483AC7FE44B
:105A0000089A002A00F0B580002BDDE91423C0F2CB
:105A10004A81CDE91E23089B0A9801930223009333
:105A200028AB049325AB039324AB0293DDE91E233B
:105A300000F046FF002306900D93FFF73DBB0623C1
:105A40000D9008934BF48076FFF7C8B80022DDE98B
:105A50001E010023FBF774FA002800F0C380249B8A
:105A600010931D4491E6159B2BF0800B13F000431F
:105A7000109300F09B802D2304228DF88B3000239F
:105A8000BAF1470F4FF003070D93079240F3E880F8
:105A90001C4A06920893169313931093FEF743B98A
:105AA0004FF0670A1B990B78FF2B00F01981002536
:105AB000109A284603E001300131FF2B08D09342B1
:105AC00006DAD21A4B78002BF5D10B780135F4E7C2
:105AD0001B91109213901695139A169BB34613447C
