:020000040800F2
:1000000000500020951A00085118000853180008E5
:10001000551800085718000859180008000000007B
:100020000000000000000000000000005B18000855
:100030005D180008000000005F1800086118000843
:10004000DD1A0008DD1A0008DD1A0008DD1A0008B4
:10005000DD1A0008DD1A0008DD1A0008DD1A0008A4
:10006000DD1A0008DD1A0008DD1A0008DD1A000894
:10007000DD1A0008DD1A0008DD1A0008DD1A000884
:10008000DD1A0008DD1A0008DD1A0008DD1A000874
:10009000DD1A0008DD1A0008DD1A0008DD1A000864
:1000A000DD1A0008DD1A0008DD1A0008DD1A000854
:1000B000DD1A0008DD1A000869180008DD1A0008BA
:1000C000DD1A0008DD1A0008DD1A0008DD1A000834
:1000D000DD1A0008DD1A0008DD1A0008DD1A000824
:1000E000DD1A0008DD1A0008DD1A00080000000013
:1000F0000000000000000000000000000000000000
:0C01000000000000000000005FF808F1A3
:1001100010B5054C237833B9044B13B10448AFF341
:1001200000800123237010BDB809002000000000EA
:100130004892000808B5034B1BB103490348AFF3CD
:10014000008008BD00000000BC09002048920008A3
:1001500081F0004102E000BF83F0004330B54FEA78
:1001600041044FEA430594EA050F08BF90EA020FE5
:100170001FBF54EA000C55EA020C7FEA645C7FEA78
:10018000655C00F0E2804FEA5454D4EB5555B8BF9B
:100190006D420CDD2C4480EA020281EA030382EA0C
:1001A000000083EA010180EA020281EA0303362D9E
:1001B00088BF30BD11F0004F4FEA01314FF4801C71
:1001C0004CEA113102D0404261EB410113F0004F83
:1001D0004FEA03334CEA133302D0524263EB43033A
:1001E00094EA050F00F0A780A4F10104D5F1200ED8
:1001F0000DDB02FA0EFC22FA05F2801841F1000133
:1002000003FA0EF2801843FA05F359410EE0A5F106
:1002100020050EF1200E012A03FA0EFC28BF4CF037
:10022000020C43FA05F3C01851EBE37101F00045ED
:1002300007D54FF0000EDCF1000C7EEB00006EEBFA
:100240000101B1F5801F1BD3B1F5001F0CD3490884
:100250005FEA30004FEA3C0C04F101044FEA4452DB
:1002600012F5800F80F09A80BCF1004F08BF5FEA62
:10027000500C50F1000041EB045141EA050130BD42
:100280005FEA4C0C404141EB0101013C28BFB1F554
:10029000801FE9D291F0000F04BF01460020B1FA9F
:1002A00081F308BF2033A3F10B03B3F120020CDA72
:1002B0000C3208DD02F1140CC2F10C0201FA0CF050
:1002C00021FA02F10CE002F11402D8BFC2F1200CB5
:1002D00001FA02F120FA0CFCDCBF41EA0C0190406B
:1002E000E41AA2BF01EB0451294330BD6FEA0404B4
:1002F0001F3C1CDA0C340EDC04F11404C4F120029F
:1003000020FA04F001FA02F340EA030021FA04F3B0
:1003100045EA030130BDC4F10C04C4F1200220FA07
:1003200002F001FA04F340EA0300294630BD21FA45
:1003300004F0294630BD94F0000F83F4801306BF0B
:1003400081F480110134013D4EE77FEA645C18BFFF
:100350007FEA655C29D094EA050F08BF90EA020F96
:1003600005D054EA000C04BF1946104630BD91EA8E
:10037000030F1EBF0021002030BD5FEA545C05D191
:100380004000494128BF41F0004130BD14F58004D0
:100390003CBF01F5801130BD01F0004545F0FE4144
:1003A00041F470014FF0000030BD7FEA645C1ABF79
:1003B000194610467FEA655C1CBF0B46024650EAB0
:1003C000013406BF52EA033591EA030F41F40021DC
:1003D00030BD00BF90F0000F04BF0021704730B562
:1003E0004FF4806404F132044FF000054FF0000137
:1003F00050E700BF90F0000F04BF0021704730B5F8
:100400004FF4806404F1320410F0004548BF4042CC
:100410004FF000013EE700BF42004FEAE2014FEA21
:1004200031014FEA02701FBF12F07F4393F07F4FFC
:1004300081F06051704732F07F4208BF704793F0FF
:100440007F4F04BF41F40021704730B54FF4607412
:1004500001F0004521F000411CE700BF50EA010215
:1004600008BF704730B54FF000050AE050EA0102BE
:1004700008BF704730B511F0004502D5404261EB2E
:1004800041014FF4806404F132045FEA915C3FF46F
:10049000D8AE4FF003025FEADC0C18BF03325FEA0C
:1004A000DC0C18BF033202EBDC02C2F1200300FABD
:1004B00003FC20FA02F001FA03FE40EA0E0021FAE2
:1004C00002F11444BDE600BF80F0004002E000BF2E
:1004D00081F0004142001FBF5FEA410392EA030F2F
:1004E0007FEA226C7FEA236C6AD04FEA1262D2EB79
:1004F0001363C1BFD218414048404140B8BF5B427E
:10050000192B88BF704710F0004F40F4000020F016
:100510007F4018BF404211F0004F41F4000121F02C
:100520007F4118BF494292EA030F3FD0A2F1010276
:1005300041FA03FC10EB0C00C3F1200301FA03F1B4
:1005400000F0004302D5494260EB4000B0F5000FD7
:1005500013D3B0F1807F06D340084FEA310102F196
:100560000102FE2A51D2B1F1004F40EBC25008BF48
:1005700020F0010040EA03007047490040EB000012
:10058000013A28BFB0F5000FEDD2B0FA80FCACF113
:10059000080CB2EB0C0200FA0CF0AABF00EBC25040
:1005A00052421843BCBFD0401843704792F0000F2E
:1005B00081F4000106BF80F400000132013BB5E781
:1005C0004FEA41037FEA226C18BF7FEA236C21D0F7
:1005D00092EA030F04D092F0000F08BF084670475C
:1005E00090EA010F1CBF0020704712F07F4F04D12A
:1005F000400028BF40F00040704712F100723CBF3D
:1006000000F50000704700F0004343F0FE4040F466
:10061000000070477FEA226216BF08467FEA236324
:100620000146420206BF5FEA412390EA010F40F40F
:10063000800070474FF0000304E000BF10F000435B
:1006400048BF40425FEA000C08BF704743F0964342
:1006500001464FF000001CE050EA010208BF70475D
:100660004FF000030AE000BF50EA010208BF7047E4
:1006700011F0004302D5404261EB41015FEA010CF9
:1006800002BF84460146002043F0B64308BFA3F1F1
:100690008053A3F50003BCFA8CF2083AA3EBC253D3
:1006A00010DB01FA02FC634400FA02FCC2F12002F2
:1006B000BCF1004F20FA02F243EB020008BF20F029
:1006C0000100704702F1200201FA02FCC2F120028F
:1006D00050EA4C0021FA02F243EB020008BF20EA84
:1006E000DC7070474FF0FF0C1CEAD0521EBF1CEAB2
:1006F000D15392EA0C0F93EA0C0F6FD01A4480EAA0
:10070000010C400218BF5FEA41211ED04FF0006388
:1007100043EA501043EA5111A0FB01310CF00040B4
:10072000B1F5000F3EBF490041EAD3715B0040EADA
:10073000010062F17F02FD2A1DD8B3F1004F40EBAA
:10074000C25008BF20F00100704790F0000F0CF07D
:10075000004C08BF49024CEA502040EA51207F3A41
:10076000C2BFD2F1FF0340EAC250704740F400001C
:100770004FF00003013A5DDC12F1190FDCBF00F00D
:1007800000407047C2F10002410021FA02F1C2F1BB
:10079000200200FA02FC5FEA310040F1000053EA57
:1007A0004C0308BF20EADC70704792F0000F00F0A5
:1007B000004C02BF400010F4000F013AF9D040EAAB
:1007C0000C0093F0000F01F0004C02BF490011F43F
:1007D000000F013BF9D041EA0C018FE70CEAD1533D
:1007E00092EA0C0F18BF93EA0C0F0AD030F0004CBD
:1007F00018BF31F0004CD8D180EA010000F0004071
:10080000704790F0000F17BF90F0004F084691F02E
:10081000000F91F0004F14D092EA0C0F01D1420268
:100820000FD193EA0C0F03D14B0218BF084608D131
:1008300080EA010000F0004040F0FE4040F400007B
:10084000704740F0FE4040F4400070474FF0FF0C0E
:100850001CEAD0521EBF1CEAD15392EA0C0F93EA55
:100860000C0F69D0A2EB030280EA010C49024FEAA7
:10087000402037D04FF0805343EA111143EA101360
:100880000CF000408B4238BF5B0042F17D024FF418
:10089000000C8B4224BF5B1A40EA0C00B3EB510FF3
:1008A00024BFA3EB510340EA5C00B3EB910F24BFDC
:1008B000A3EB910340EA9C00B3EBD10F24BFA3EB61
:1008C000D10340EADC001B0118BF5FEA1C1CE0D129
:1008D000FD2A3FF650AF8B4240EBC25008BF20F0DC
:1008E000010070470CF0004C4CEA50207F32C2BF30
:1008F000D2F1FF0340EAC250704740F400004FF0CD
:100900000003013A37E792F0000F00F0004C02BFFD
:10091000400010F4000F013AF9D040EA0C0093F0C7
:10092000000F01F0004C02BF490011F4000F013B21
:10093000F9D041EA0C0195E70CEAD15392EA0C0F89
:1009400008D142027FF47DAF93EA0C0F7FF470AFC1
:10095000084676E793EA0C0F04D14B023FF44CAF04
:1009600008466EE730F0004C18BF31F0004CCAD199
:1009700030F000427FF45CAF31F000437FF43CAFD5
:100980005FE700BF844641EA000313F0030349D147
:10099000403A23D30B6803604B6843608B688360E5
:1009A000CB68C3600B6903614B6943618B698361E9
:1009B000CB69C3610B6A03624B6A43628B6A8362D1
:1009C000CB6AC3620B6B03634B6B43638B6B8363B9
:1009D000CB6BC36340304031403ADBD230320BD373
:1009E0000B6803604B6843608B688360CB68C360AF
:1009F00010301031103AF3D20C3205D351F8043BC9
:100A000040F8043B043AF9D2043208D0D2071CBFA4
:100A100011F8013B00F8013B01D30B8803806046CD
:100A2000704700BF082A13D38B07B1D010F003031F
:100A3000AED0C3F10403D21ADB071CBF11F8013B8F
:100A400000F8013BA4D331F8023B20F8023B9FE7BA
:100A5000043AD9D3013A11F8013B00F8013BF9D22D
:100A60000B7803704B7843708B78837060467047C7
:100A700070B54FF0FF0C4CF4E06C1CEA11541DBF34
:100A80001CEA135594EA0C0F95EA0C0F00F0DEF8FF
:100A90002C4481EA030621EA4C5123EA4C5350EAE4
:100AA000013518BF52EA033541F4801143F4801335
:100AB00038D0A0FB02CE4FF00005E1FB02E506F0C6
:100AC0000042E0FB03E54FF00006E1FB03569CF01B
:100AD000000F18BF4EF0010EA4F1FF04B6F5007F21
:100AE00064F5407404D25FEA4E0E6D4146EB060693
:100AF00042EAC62141EA55514FEAC52040EA5E501C
:100B00004FEACE2EB4F1FD0C88BFBCF5E06F1ED8C5
:100B1000BEF1004F08BF5FEA500E50F1000041EBFC
:100B2000045170BD06F0004646EA010140EA0200A9
:100B300081EA0301B4EB5C04C2BFD4EB0C0541EACB
:100B4000045170BD41F480114FF0000E013C00F3E0
:100B5000AB8014F1360FDEBF002001F0004170BD04
:100B6000C4F10004203C35DA0C341BDC04F114041D
:100B7000C4F1200500FA05F320FA04F001FA05F2A9
:100B800040EA020001F0004221F0004110EBD37076
:100B900021FA04F642EB06015EEA430E08BF20EAA2
:100BA000D37070BDC4F10C04C4F1200500FA04F345
:100BB00020FA05F001FA04F240EA020001F00041D7
:100BC00010EBD37041F100015EEA430E08BF20EA4A
:100BD000D37070BDC4F1200500FA05F24EEA020E92
:100BE00020FA04F301FA05F243EA020321FA04F0C1
:100BF00001F0004121FA04F220EA020000EBD37078
:100C00005EEA430E08BF20EAD37070BD94F0000F77
:100C10000FD101F00046400041EB010111F4801FAB
:100C200008BF013CF7D041EA060195F0000F18BF5C
:100C3000704703F00046520043EB030313F4801F98
:100C400008BF013DF7D043EA0603704794EA0C0F52
:100C50000CEA135518BF95EA0C0F0CD050EA410668
:100C600018BF52EA4306D1D181EA030101F00041E5
:100C70004FF0000070BD50EA410606BF104619460D
:100C800052EA430619D094EA0C0F02D150EA013619
:100C900013D195EA0C0F05D152EA03361CBF10465A
:100CA00019460AD181EA030101F0004141F0FE41F9
:100CB00041F470014FF0000070BD41F0FE4141F47D
:100CC000780170BD70B54FF0FF0C4CF4E06C1CEA7D
:100CD00011541DBF1CEA135594EA0C0F95EA0C0F32
:100CE00000F0A7F8A4EB050481EA030E52EA0335ED
:100CF0004FEA013100F088804FEA03334FF080550E
:100D000045EA131343EA12634FEA022245EA11153A
:100D100045EA10654FEA00260EF000419D4208BFEB
:100D2000964244F1FD0404F5407402D25B084FEA98
:100D30003202B61A65EB03055B084FEA32024FF444
:100D400080104FF4002CB6EB020E75EB030E22BFA1
:100D5000B61A754640EA0C005B084FEA3202B6EB61
:100D6000020E75EB030E22BFB61A754640EA5C0010
:100D70005B084FEA3202B6EB020E75EB030E22BFA0
:100D8000B61A754640EA9C005B084FEA3202B6EBA1
:100D9000020E75EB030E22BFB61A754640EADC0060
:100DA00055EA060E18D04FEA051545EA16754FEAC2
:100DB00006164FEAC30343EA52734FEAC2025FEAE0
:100DC0001C1CC0D111F4801F0BD141EA00014FF06F
:100DD00000004FF0004CB6E711F4801F04BF014340
:100DE0000020B4F1FD0C88BFBCF5E06F3FF6AFAE5C
:100DF000B5EB030C04BFB6EB020C5FEA500C50F1EC
:100E0000000041EB045170BD0EF0004E4EEA11316E
:100E100014EB5C04C2BFD4EB0C0541EA045170BD75
:100E200041F480114FF0000E013C90E645EA060EB9
:100E30008DE60CEA135594EA0C0F08BF95EA0C0FE7
:100E40003FF43BAF94EA0C0F0AD150EA01347FF42F
:100E500034AF95EA0C0F7FF425AF104619462CE706
:100E600095EA0C0F06D152EA03353FF4FDAE104669
:100E7000194622E750EA410618BF52EA43067FF4BA
:100E8000C5AE50EA41047FF40DAF52EA43057FF44A
:100E9000EBAE12E74FF0FF3C06E000BF4FF0010C55
:100EA00002E000BF4FF0010C4DF804CD4FEA410CB9
:100EB0007FEA6C5C4FEA430C18BF7FEA6C5C1BD086
:100EC00001B050EA410C0CBF52EA430C91EA030F07
:100ED00002BF90EA020F0020704710F1000F91EA64
:100EE000030F58BF994208BF90422CBFD8176FEA32
:100EF000E37040F0010070474FEA410C7FEA6C5C00
:100F000002D150EA013C07D14FEA430C7FEA6C5C06
:100F1000D6D152EA033CD3D05DF8040B704700BF32
:100F20008446104662468C461946634600E000BF80
:100F300001B5FFF7B7FF002848BF10F1000F01BD52
:100F40004DF808EDFFF7F4FF0CBF012000205DF81D
:100F500008FB00BF4DF808EDFFF7EAFF34BF0120A2
:100F600000205DF808FB00BF4DF808EDFFF7E0FF3B
:100F700094BF012000205DF808FB00BF4DF808ED8C
:100F8000FFF7CEFF94BF012000205DF808FB00BFF3
:100F90004DF808EDFFF7C4FF34BF012000205DF8D5
:100FA00008FB00BF4FEA410C7FEA6C5C02D150EABB
:100FB000013C0AD14FEA430C7FEA6C5C02D152EA51
:100FC000033C02D14FF0000070474FF00100704722
:100FD0004FEA410212F5001215D211D56FF4787361
:100FE000B3EB625212D94FEAC12343F0004343EA04
:100FF000505311F0004F23FA02F018BF40427047DF
:101000004FF00000704750EA013005D111F0004068
:1010100008BF6FF0004070474FF00000704700BFFE
:1010200053B94AB9002908BF00281CBF4FF0FF314F
:101030004FF0FF3000F076B9ADF1080C6DE904CE49
:1010400000F006F8DDF804E0DDE9022304B07047A3
:101050002DE9F047089E0D4604468846002B4DD1E9
:101060008A42944668D9B2FA82F252B101FA02F386
:10107000C2F1200120FA01F10CFA02FC41EA030856
:1010800094404FEA1C41B8FBF1F71FFA8CFE01FBBC
:10109000178807FB0EF0230C43EA084398420AD94D
:1010A0001CEB030307F1FF3580F01E81984240F2EC
:1010B0001B81023F63441B1AB3FBF1F001FB1033A9
:1010C00000FB0EFEA4B244EA0344A6450AD91CEB79
:1010D000040400F1FF3380F00981A64540F2068147
:1010E000644402380021A4EB0E0440EA07401EB11C
:1010F0000023D440C6E90043BDE8F0878B4208D9FD
:10110000002E00F0EE800021C6E900050846BDE88B
:10111000F087B3FA83F100294AD1AB4202D382426D
:1011200000F2FC80841A65EB030301209846002E30
:10113000E2D0C6E90048DFE702B9FFDEB2FA82F288
:10114000002A40F09180A1EB0C0001214FEA1C47DE
:101150001FFA8CFEB0FBF7F307FB1300250C45EAE2
:1011600000450EFB03F0A84208D91CEB050503F16E
:10117000FF3802D2A84200F2CE8043462D1AB5FBBA
:10118000F7F007FB10550EFB00FEA4B244EA05443D
:10119000A64508D91CEB040400F1FF3502D2A64590
:1011A00000F2B6802846A4EB0E0440EA03409EE716
:1011B000C1F120078B4022FA07FC4CEA030C25FA08
:1011C00007FA4FEA1C49BAFBF9F820FA07F309FBC2
:1011D00018AA8D401FFA8CFE1D4300FA01F308FB8C
:1011E0000EF02C0C44EA0A44A04202FA01F20BD998
:1011F0001CEB040408F1FF3A80F08880A04240F222
:101200008580A8F102086444241AB4FBF9F009FBB4
:10121000104400FB0EFEADB245EA0444A64508D9D1
:101220001CEB040400F1FF356CD2A6456AD90238E4
:10123000644440EA0840A0FB0295A4EB0E04AC42D3
:10124000C846AE4656D353D0002E69D0B3EB080241
:1012500064EB0E0422FA01F304FA07F71F43CC40B3
:10126000C6E90074002147E70CFA02FCC2F1200134
:1012700025FA01F34FEA1C4720FA01F195400D438E
:10128000B3FBF7F107FB11331FFA8CFE280C40EA81
:10129000034001FB0EF3834204FA02F408D91CEB6D
:1012A000000001F1FF382FD283422DD9023960446A
:1012B000C01AB0FBF7F307FB1300ADB245EA0045D7
:1012C00003FB0EF0A84208D91CEB050503F1FF381B
:1012D00016D2A84214D9023B6544281A43EA0141B8
:1012E00038E73146304607E72F46E4E61846F9E688
:1012F0004B45A9D2B9EB020865EB0C0E0138A3E708
:101300004346EAE7284694E74146D1E7D0467BE7E3
:101310006444023847E7023B65442FE7084606E786
:101320003146E9E6704700BF10B582B000F07F009B
:101330008DF804008DF80510094C0022102120467C
:1013400000F0AAFD4FF0FF33022201A9054801F089
:10135000BEF901221021204600F09EFD02B010BD12
:1013600000080140E409002010B584B060F07F005F
:101370008DF80C0000228DF80D20ADF808200B4CE4
:101380001021204600F088FD4FF0FF330093022328
:1013900002AA03A9064801F07CFA01221021204686
:1013A00000F07AFD9DF8090004B010BD000801406E
:1013B000E409002008B500214E20FFF7B5FF0A2000
:1013C00000F0D8FB7520FFF7CFFF472800D0FEE7DD
:1013D0000F214E20FFF7A8FF66214F20FFF7A4FF43
:1013E00026215020FFF7A0FF03211620FFF79CFFC6
:1013F000642000F0BFFB08BD70B505460C461F20F9
:10140000FFF7B2FF06022020FFF7AEFF00B2304325
:1014100028802120FFF7A8FF06022220FFF7A4FF63
:1014200000B2304368802320FFF79EFF060224208D
:10143000FFF79AFF00B23043A8802520FFF794FF02
:1014400005022620FFF790FF00B2284320802720C6
:10145000FFF78AFF05022820FFF786FF00B2284326
:1014600060802920FFF780FF05022A20FFF77CFF1C
:1014700000B22843A08070BD2DE9F04180460D46A2
:1014800017461E4600240AE038F91400FFF7D6F884
:101490004FF06651FFF726F947F824000134022C7B
:1014A000F2DD002409E035F91400FFF7C7F805491B
:1014B000FFF7CCF946F824000134022CF3DDBDE837
:1014C000F08100BF0000834210B51D20FFF74CFFE4
:1014D000040224B21E20FFF747FF00B22043FFF7AB
:1014E000ADF80349FFF7B2F90249FEF7F3FF10BD6B
:1014F000E17A04430000C8412DE9F04188B000249E
:101500000494059406940794254B9A6942F01002BE
:101510009A619A6902F010020092009A9A6942F068
:1015200020029A619A6902F020020192019A9A6956
:1015300042F004029A619A6902F004020292029A4D
:101540009A6942F008029A619B6903F008030393C9
:10155000039BDFF8508022464FF40051404600F0D4
:101560009BFC114D22461021284600F095FC4FF4BB
:10157000005304930127059706940226079604A9B1
:10158000404600F077FB10230493059706940796D6
:101590000DEB0301284600F06DFB08B0BDE8F081BB
:1015A000001002400010014000080140064B1A687C
:1015B00006490968486A1B689342F7D1110C120466
:1015C000801841F100017047E0090020400A002026
:1015D00000B583B001904FF0FF33012201A9034809
:1015E00001F0B5FD019803B05DF804FB880A002006
:1015F00038B5FFF7DBFF05460C460A4A1368526808
:1016000009495B1842F10002AB4272EB040300D3BC
:1016100038BD4FF40051054800F044FC014B1D60FB
:101620005C60F5E7D809002040420F00001001403F
:101630000268044B9A4200D07047034A1368013392
:101640001360F9E700080040E009002072B6FEE7E9
:1016500000B591B02822002106A801F009FE002360
:1016600001930293039304930593012206924FF48E
:10167000803307930A9202220D920E934FF4E013E7
:101680000F9306A800F02EFC80B90F2301930221CE
:101690000291002303934FF480620492059301A802
:1016A00000F052FE20B911B05DF804FBFFF7CEFF49
:1016B000FFF7CCFF30B597B000F038FAFFF7C8FF5E
:1016C000FFF71AFF00F046F800F08EF900F034F949
:1016D0001E4801F035FAFFF76DFEFFF789FF0EA9EE
:1016E0000CA8FFF789FEFFF7EFFE044613AB10AA24
:1016F0000EA90CA8FFF7C0FE2046FEF78DFE04469B
:101700000D461598FEF788FECDE90A011498FEF7FC
:1017100083FECDE908011398FEF77EFECDE90601B0
:101720001298FEF779FECDE904011198FEF774FED8
:10173000CDE902011098FEF76FFECDE900012246C7
:101740002B46034801F0E6FDC7E700BF400A002032
:101750006092000808B50E480E4B03604FF4827388
:10176000436000238360C360036143614FF40072F0
:1017700082611022C2610362436283620A23C362F0
:1017800000F04AFF00B908BDFFF760FFFBE700BFAC
:10179000E40900200030014010B586B00023029318
:1017A0000393049305930268164B9A4201D006B046
:1017B00010BD03F560439A6942F480529A619A69B8
:1017C00002F480520092009A9A6942F004029A61EF
:1017D0009B6903F004030193019BA023029302235E
:1017E000039303230593084C02A9204600F042FA14
:1017F0004023029300230393049302A9204600F0A0
:1018000039FAD4E7003001400008014082B00E4BA5
:101810009A6942F001029A619A6902F0010200920B
:10182000009ADA6942F08052DA61DB6903F0805392
:101830000193019B054A536823F0E06343F0007372
:10184000536002B0704700BF00100240000001402A
:10185000FEE7FEE7FEE7FEE7FEE7704770477047EA
:1018600008B500F075F908BD08B5024801F0A0F907
:1018700008BD00BF400A00200120704708B501F0F4
:10188000CDFC162303604FF0FF3008BD08B54FF0C4
:10189000FF31FFF7F3FFFEE770B50C461646002553
:1018A00006E0AFF30080214601F8010B01350C463C
:1018B000B542F6DB304670BD70B50C4616460025C5
:1018C00004E014F8010BFFF783FE0135B542F8DBA5
:1018D000304670BD4FF0FF3070474FF400534B60FF
:1018E00000207047012070470020704710B5034664
:1018F0000C4A0D490D48006840B10C48006803448B
:10190000521A934206D8094A136010BD0748084C82
:101910000460F2E701F082FC0C2303604FF0FF301B
:10192000F3E700BF00500020000400003C0A002044
:10193000200B00207047000000B587B00023029301
:10194000039304930593009301931548154A02608D
:101950004722426083604FF6FF72C26003618023BA
:10196000836101F017FA90B94FF48053029302A9F2
:101970000B4801F047FA68B90023009301936946C8
:10198000074801F0BFFA40B907B05DF804FBFFF764
:101990005DFEE9E7FFF75AFEEEE7FFF757FEF3E7D4
:1019A000400A00200008004002680E4B9A4200D016
:1019B000704700B583B003F50233DA6942F00402E0
:1019C000DA61DB6903F004030193019B00221146F5
:1019D0001E2000F0F5F81E2000F02AF903B05DF893
:1019E00004FB00BF0008004008B50A480A4B03602A
:1019F0004FF4E133436000238360C36003610C2232
:101A000042618361C36101F072FB00B908BDFFF759
:101A10001DFEFBE7880A00200038014010B586B0A3
:101A2000002302930393049305930268174B9A4291
:101A300001D006B010BD03F558439A6942F48042C4
:101A40009A619A6902F480420092009A9A6942F07F
:101A500004029A619B6903F004030193019B4FF414
:101A6000007302930223039303230593084C02A9F6
:101A7000204600F0FFF84FF48063029300230393A5
:101A8000049302A9204600F0F5F8D2E7003801409F
:101A900000080140FFF74EFF0B480C490C4A002399
:101AA00002E0D458C4500433C4188C42F9D3094A14
:101AB000094C002301E013600432A242FBD301F081
:101AC000B3FBFFF7F7FD704700000020B8090020C6
:101AD000CC960008B80900201C0B0020FEE700008F
:101AE00010B504460E4B18784FF47A73B3FBF0F33D
:101AF0000C4A1068B0FBF3F000F0A8F868B90F2C9E
:101B000001D901200AE0002221464FF0FF3000F009
:101B100057F8054B1C60002000E0012010BD00BFFD
:101B200004000020000000200800002008B5074A3B
:101B3000136843F010031360032000F02FF8002017
:101B4000FFF7CEFFFFF762FE002008BD0020024035
:101B5000034A1168034B1B780B441360704700BFA6
:101B6000D00A002004000020014B1868704700BF15
:101B7000D00A002038B50446FFF7F6FF0546B4F159
:101B8000FF3F02D0044B1B781C44FFF7EDFF401BC6
:101B9000A042FAD338BD00BF04000020074AD36832
:101BA00023F4E0631B041B0C000200F4E060034319
:101BB00043F0BF6343F40033D360704700ED00E0AF
:101BC00000B5194BDB68C3F30223C3F1070CBCF16A
:101BD000040F28BF4FF0040C03F1040EBEF1060FF2
:101BE00018D9033B4FF0FF3E0EFA0CFC21EA0C0122
:101BF00099400EFA03F322EA0303194300280BDB92
:101C00000901C9B200F1604000F5614080F800139D
:101C10005DF804FB0023E5E700F00F000901C9B2FD
:101C2000024B1954F4E700BF00ED00E014ED00E0B2
:101C3000002807DB00F01F02400901239340024AFD
:101C400042F82030704700BF00E100E00138B0F1F9
:101C5000807F0BD24FF0E0235861054AF02182F8D3
:101C600023100020986107221A61704701207047F5
:101C700000ED00E070B582B00024A446A6E0804DDF
:101C8000AA4210D007D97F4DAA420CD005F5803565
:101C9000AA4208D013E0A5F58015AA4203D005F5A5
:101CA0007025AA4207D18A68002A58D0012A51D04B
:101CB0004361082403E0A5F58015AA42F3D0BEF1E4
:101CC000FF0F4ED80646BEF1FF0F4CD84FEA8C02EC
:101CD00033680F25954023EA050304FA02F2134303
:101CE00033604B6813F0805F6ED0674B9A6942F0A7
:101CF00001029A619B6903F001030193019B4FEA82
:101D00009C02951C614B53F825600CF003039D0069
:101D10000F23AB4026EA03065D4B984229D003F51A
:101D20008063984200F08E8003F58063984200F053
:101D30008B8003F58063984219D004231AE0CC68A5
:101D4000BDE7CC680434BAE7CC680834B7E7CC68A0
:101D50000C34B4E703610824B1E70024AFE704249E
:101D6000ADE7061DAFE7ACF108029200B0E7032330
:101D700000E00023AB4033430232444D45F82230AB
:101D80004B6813F4801F61D0424A936843EA0E0304
:101D900093604B6813F4001F5ED03E4AD36843EA59
:101DA0000E03D3604B6813F4003F5BD0394A53688D
:101DB00043EA0E0353604B6813F4803F58D0354A12
:101DC000136843EA0E0313600CF1010C0A6832FA3F
:101DD0000CF353D0012303FA0CF302EA030E33EAA7
:101DE0000202F1D14A68122A3FF649AF122A3FF6A1
:101DF00066AF01A555F822F0A71C00083F1D00089A
:101E0000491D00085B1D0008BF1C0008BF1C00081E
:101E1000BF1C0008BF1C0008BF1C0008BF1C000836
:101E2000BF1C0008BF1C0008BF1C0008BF1C000826
:101E3000BF1C0008BF1C0008BF1C0008431D000891
:101E40004F1D0008012395E7022393E7114A936889
:101E500023EA0E0393609CE70E4AD36823EA0E033D
:101E6000D3609FE70B4A536823EA0E035360A2E74F
:101E7000084A136823EA0E031360A5E702B070BD99
:101E8000000022100000311000100240000001404C
:101E900000080140000401400AB1016170470904D3
:101EA00001617047C36801EA030221EA030141EAC4
:101EB000024101617047000082B0084B1B68084A6C
:101EC000A2FB03235B0A00FB03F3019300BF019B0A
:101ED0005A1E0192002BF9D102B070470000002079
:101EE000D34D6210002800F0F18170B582B0044635
:101EF000036813F0010F2CD0994B5B6803F00C03BF
:101F0000042B1DD0964B5B6803F00C03082B12D0FA
:101F10006368B3F5803F41D0002B55D103F1804376
:101F200003F504331A6822F480321A601A6822F426
:101F300080221A6037E08A4B5B6813F4803FE7D059
:101F4000874B1B6813F4003F03D06368002B00F03D
:101F5000BF81236813F0020F75D0814B5B6813F0CB
:101F60000C0F5FD07E4B5B6803F00C03082B54D042
:101F70002369002B00F08A807A4B01221A60FFF758
:101F8000F3FD0546764B1B6813F0020F75D1FFF782
:101F9000EBFD401B0228F5D903209EE1704A13682F
:101FA00043F480331360636843B3FFF7DDFD0546F8
:101FB0006B4B1B6813F4003FCBD1FFF7D5FD401BE3
:101FC0006428F5D9032088E1B3F5A02F09D0644B2C
:101FD0001A6822F480321A601A6822F480221A6089
:101FE000E1E703F18043A3F53C331A6842F4802211
:101FF0001A601A6842F480321A60D4E7FFF7B4FD21
:102000000546574B1B6813F4003FA2D0FFF7ACFD09
:10201000401B6428F5D903205FE1514B5B6813F442
:10202000803FA5D14E4B1B6813F0020F03D02369EC
:10203000012B40F04F814A4A136823F0F80361698D
:1020400043EAC1031360236813F0080F33D0A36978
:10205000002B5CD0434B0122C3F88024FFF784FDA2
:1020600005463F4B5B6A13F0020F21D1FFF77CFD61
:10207000401B0228F5D903202FE1394A136823F0C9
:10208000F803616943EAC1031360DCE7354B0022C2
:102090001A60FFF769FD0546314B1B6813F0020F0C
:1020A000D1D0FFF761FD401B0228F5D9032014E1D0
:1020B0000120FFF701FF236813F0040F00F0968062
:1020C000274BDB6913F0805F34D1254BDA6942F08E
:1020D0008052DA61DB6903F080530193019B012593
:1020E000214B1B6813F4807F26D0E368012B3DD081
:1020F000002B53D103F1804303F504331A6A22F015
:1021000001021A621A6A22F004021A6233E0154BC5
:102110000022C3F88024FFF727FD0546104B5B6AB9
:1021200013F0020FC7D0FFF71FFD401B0228F5D99F
:102130000320D2E00025D3E70B4A136843F48073F1
:102140001360FFF711FD0646074B1B6813F4807FF1
:10215000CBD1FFF709FD801B6428F5D90320BCE033
:102160000010024000004242007000405F4A136AC3
:1021700043F001031362E36833B3FFF7F5FC06464F
:102180005A4B1B6A13F0020F2FD1FFF7EDFC801B97
:1021900041F288339842F3D903209EE0052B09D001
:1021A000524B1A6A22F001021A621A6A22F00402E1
:1021B0001A62E0E74D4B1A6A42F004021A621A6A88
:1021C00042F001021A62D6E7FFF7CEFC0646474B03
:1021D0001B6A13F0020F08D0FFF7C6FC801B41F208
:1021E00088339842F3D9032077E0E5B9E369002BFF
:1021F00072D03E4A526802F00C02082A56D0022BD6
:1022000017D03B4B00221A66FFF7AEFC0446374B53
:102210001B6813F0007F47D0FFF7A6FC001B0228C5
:10222000F5D9032059E0314AD36923F08053D361B3
:10223000DCE72F4B00221A66FFF796FC05462B4B76
:102240001B6813F0007F06D0FFF78EFC401B0228AE
:10225000F5D9032041E0236AB3F5803F1AD0234922
:102260004B6823F47413226A606A024313434B6081
:102270001F4B01221A66FFF777FC04461B4B1B68B5
:1022800013F0007F0ED1FFF76FFC001B0228F5D979
:10229000032022E0154A536823F40033A1680B435E
:1022A0005360DCE7002018E0002016E0012B16D078
:1022B0000E4B5B6803F48031226A914211D103F422
:1022C0007013626A93420ED1002006E0012070472D
:1022D000012002E0012000E0002002B070BD0120DA
:1022E000FBE70120F9E70120F7E700BF00100240FB
:1022F000000042420F4B5B6803F00C02082A01D039
:102300000D487047C3F383420C49885C13F4803F47
:102310000BD0084B5B68C3F34043094AD35C064AC1
:1023200002FB00F0B0FBF3F07047064B03FB00F03C
:10233000704700BF0010024000127A00A49200080B
:10234000B492000800093D00002800F0A08070B59C
:102350000D460446524B1B6803F007038B420BD219
:102360004F4A136823F007030B431360136803F00D
:1023700007038B4240F08D80236813F0020F17D0C3
:1023800013F0040F04D0474A536843F4E0635360EA
:10239000236813F0080F04D0424A536843F4605393
:1023A0005360404A536823F0F003A1680B43536025
:1023B000236813F0010F31D06368012B20D0022B6A
:1023C00025D0384A126812F0020F64D035494A68A5
:1023D00022F0030213434B60FFF7C6FB0646314B66
:1023E0005B6803F00C036268B3EB820F16D0FFF753
:1023F000BBFB801B41F288339842F0D9032045E0B3
:10240000284A126812F4003FE0D101203EE0254A3C
:10241000126812F0007FD9D1012037E0204B1B68F1
:1024200003F00703AB420AD91D4A136823F00703E0
:102430002B431360136803F00703AB422DD12368CD
:1024400013F0040F06D0174A536823F4E063E168E1
:102450000B435360236813F0080F07D0114A5368E9
:1024600023F46053216943EAC1035360FFF742FF3D
:102470000C4B5B68C3F303130B4AD35CD8400B4B84
:1024800018600B4B1868FFF72BFB002070BD012074
:1024900070470120FAE70120F8E70120F6E700BFC6
:1024A00000200240001002408C9200080000002032
:1024B00008000020014B1868704700BF0000002092
:1024C00008B5FFF7F7FF044B5B68C3F30223034A29
:1024D000D35CD84008BD00BF001002409C920008A9
:1024E00008B5FFF7E7FF044B5B68C3F3C223034A59
:1024F000D35CD84008BD00BF001002409C92000889
:102500002DE9F04782B00546884617461E46FFF77C
:102510002BFB0A9B1B1A03EB0609FFF725FB8246E0
:102520002B4B1B68C3F3CB3309FB03F301932B68DD
:102530009C6838EA04030CBF4FF0010C4FF0000C0C
:10254000BC4540D0B6F1FF3FF1D0FFF70DFBA0EB4B
:102550000A0048450AD2B9F1000F07D0019A02B12A
:102560004A46019B013B01939146E0E72A68536884
:1025700023F0E00353606B68B3F5827F0BD0AB6A46
:10258000B3F5005F14D0012385F85130002385F89E
:102590005030032018E0AB68B3F5004F02D0B3F51C
:1025A000806FECD12A68136823F040031360E6E7DC
:1025B0002A68136823F4005313602A68136843F4ED
:1025C00000531360DFE7002002B0BDE8F08700BFD2
:1025D0000000002070B582B006460C4615460092F9
:1025E0000B4601220221FFF78BFF48B900952346D5
:1025F000002280213046FFF783FF38B902B070BD5A
:10260000736D43F0200373650320F7E7736D43F0A8
:10261000200373650320F1E7002856D010B5044667
:10262000436A33B94368B3F5827F05D00023C361A1
:1026300002E00023036143610023A36294F8513058
:10264000002B3CD0022384F851302268136823F019
:1026500040031360636803F48273A26802F40442C7
:102660001343E26802F400621343226902F002029B
:102670001343626902F001021343A26902F400727B
:102680001343E26902F038021343226A02F0800227
:102690001343A26A02F40052216813430B60638B58
:1026A000226803F0040353602268D36923F40063B3
:1026B000D36100206065012384F8513010BD84F897
:1026C00050302046FFF768F8BCE7012070472DE93D
:1026D000F04383B00446894690461D46FFF744FA0E
:1026E00094F85160F6B2012E40F0CC800746B9F163
:1026F000000F00F0C880B8F1000F00F0C48094F81B
:102700005030012B00F0C380012384F850300323A4
:1027100084F8513000236365C4F83090A4F8348005
:10272000A4F83680A363A387E38763642364A36864
:10273000B3F5004F1ED023681A6812F0400F03D182
:102740001A6842F040021A60E368B3F5006F1CD0CB
:10275000636813B1B8F1010F5FD1226B236812785F
:102760001A73236B01332363E38E9BB2013B9BB24D
:10277000E38652E02268136823F040031360226866
:10278000136843F480431360D5E7636813B1B8F16D
:10279000010F15D1226B23681288DA60236B023394
:1027A0002363E38E9BB2013B9BB2E38608E0FFF715
:1027B000DBF9C01BA84202D3B5F1FF3F15D1A5B18B
:1027C000E38E9BB2002B42D023689A6812F0020F6E
:1027D000EDD0226B1288DA60236B02332363E38E21
:1027E0009BB2013B9BB2E386EAE7012384F85130B8
:1027F000002384F85030032645E0226B12781A73C8
:10280000236B01332363B4F836C01FFA8CFC0CF140
:10281000FF3C1FFA8CFCA4F836C0E38E9BB2B3B128
:1028200023689A6812F0020FE7D1FFF79DF9C01BE9
:10283000A84202D3B5F1FF3F01D1002DEDD1012314
:1028400084F85130002384F8503003261BE03A46C8
:1028500029462046FFF7BEFE08B120236365A36822
:1028600033B901932368DA6801929B680193019B55
:10287000012384F85130002384F85030636D13B97C
:10288000002600E00226304603B0BDE8F0830226B1
:10289000F9E72DE9F04383B00446884691461F4688
:1028A0000A9DFFF761F9064694F85130DBB2626881
:1028B000012B0AD0B2F5827F40F00581A268002A80
:1028C00040F00581042B40F00481B8F1000F00F0C6
:1028D0000281B9F1000F00F00081002F00F0FF80AD
:1028E00094F85030012B00F0FC80012384F8503024
:1028F00094F85130DBB2042B02D0052384F8513018
:1029000000236365C4F83890E787A787C4F8308050
:10291000E786A7862364636423681A6812F0400F71
:1029200003D11A6842F040021A60E368B3F5006F01
:1029300011D063680BB1012F0BD1226B2368127881
:102940001A73236B01332363E38E9BB2013B9BB26B
:10295000E386012771E063680BB1012F0BD1226B75
:1029600023681288DA60236B02332363E38E9BB201
:10297000013B9BB2E38601271BE023689A6812F0B3
:10298000010F0ED0E28F92B25AB1DA68A36B1A80AF
:10299000A36B0233A363E38F9BB2013B9BB2E3873C
:1029A0000127FFF7E1F8801BA84202D3B5F1FF3FF2
:1029B0001ED1E38E9BB21BB9E38F9BB2002B62D07A
:1029C00023689A6812F0020FD7D0E28E92B2002AE2
:1029D000D3D0002FD1D0226B1288DA60236B023360
:1029E0002363E38E9BB2013B9BB2E3860027C4E7DF
:1029F000012384F85130002384F85030032063E031
:102A000023689A6812F0010F0ED0E28F92B25AB189
:102A1000DA68A36B1A70A36B0133A363E38F9BB2D5
:102A2000013B9BB2E3870127FFF79EF8831BAB4274
:102A300002D3B5F1FF3F1ED1EDB1E38E9BB213B9C6
:102A4000E38F9BB2FBB123689A6812F0020FD7D0D4
:102A5000E28E92B2002AD3D0002FD1D0226B12780E
:102A60001A73236B01332363E38E9BB2013B9BB24A
:102A7000E3860027C4E7012384F85130002384F85B
:102A80005030032020E0324629462046FFF7A2FDC1
:102A900090B9A36833B901932368DA6801929B68FF
:102AA0000193019B012384F85130002384F85030B6
:102AB000636D4BB1012007E020236365002384F898
:102AC0005030012000E0022003B0BDE8F083022076
:102AD000FAE70220F8E70120F6E70120F4E70120F9
:102AE000F2E70220F0E710B4036A046A24F001045C
:102AF0000462846924F0F00C4CEA021223F00A0309
:102B00000B438261036210BC704710B4036A046A0D
:102B100024F010040462846924F4704C4CEA0232FC
:102B200023F0A00343EA01138261036210BC7047E3
:102B3000836823F070030B4343F0070383607047FF
:102B400090F83D30DBB2012B27D1022380F83D30D5
:102B50000268D36843F00103D3600368114A9342CB
:102B600010D0B3F1804F0DD0A2F59432934209D02A
:102B700002F58062934205D01A6842F001021A60A1
:102B8000002070479A6802F00702062A07D01A68E8
:102B900042F001021A6000207047012070470020B7
:102BA000704700BF002C0140704770477047704766
:102BB00070B504460368DE681D6915F0020F10D079
:102BC00016F0020F0DD06FF002021A610123037795
:102BD00003689B6913F0030F5ED0FFF7E6FF002345
:102BE000237715F0040F12D016F0040F0FD02368CE
:102BF0006FF004021A610223237723689B6913F4A0
:102C0000407F4FD02046FFF7D0FF0023237715F0F9
:102C1000080F12D016F0080F0FD023686FF00802CB
:102C20001A61042323772368DB6913F0030F40D074
:102C30002046FFF7BAFF0023237715F0100F12D0BC
:102C400016F0100F0FD023686FF010021A610823DE
:102C500023772368DB6913F4407F31D02046FFF7E8
:102C6000A4FF0023237715F0010F02D016F0010F07
:102C70002DD115F0800F02D016F0800F2FD115F056
:102C8000400F02D016F0400F31D115F0200F02D0C6
:102C900016F0200F33D170BDFFF786FF2046FFF7F7
:102CA00085FF9CE72046FFF77FFF2046FFF77EFF6A
:102CB000ABE72046FFF778FF2046FFF777FFBAE73C
:102CC0002046FFF771FF2046FFF770FFC9E7236832
:102CD0006FF001021A612046FEF7AAFCC9E72368DB
:102CE0006FF080021A61204600F043F9C7E72368BD
:102CF0006FF040021A612046FFF759FFC5E72368CD
:102D00006FF020021A61204600F032F9C3E700009C
:102D100003681F4A90420AD0B0F1804F07D0A2F555
:102D20009432904203D002F58062904203D123F0A6
:102D300070034A681343164A90420AD0B0F1804F9C
:102D400007D0A2F59432904203D002F580629042FF
:102D500003D123F44073CA68134323F080034A6904
:102D6000134303608B68C3620B688362084B98420D
:102D70000AD001234361036913F0010F03D00369F3
:102D800023F00103036170470B690363F1E700BFA0
:102D9000002C014040B310B5044690F83D30F3B12B
:102DA000022384F83D30214651F8040BFFF7B0FFB1
:102DB000012384F8463084F83E3084F83F3084F8AC
:102DC000403084F8413084F8423084F8433084F84D
:102DD000443084F8453084F83D30002010BD80F840
:102DE0003C30FEF7E1FDDBE70120704710B484685A
:102DF00024F47F4C42EA03220A4342EA0C02826036
:102E000010BC704790F83C30012B78D010B50446C8
:102E1000012380F83C30022380F83D30026893683B
:102E200023F47F4323F0770393600B68602B4CD02F
:102E300029D8402B54D00CD9502B22D1CA684968CC
:102E40000068FFF750FE50212068FFF771FE002058
:102E500005E0202B0DD009D9302B0AD00120012309
:102E600084F83D30002384F83C3010BD0BB1102BAA
:102E700005D119462068FFF75BFE0020EFE701202F
:102E8000EDE70120EBE7B3F5805F34D0B3F5005FE9
:102E90000CD1CB684A6889680068FFF7A7FF2268F1
:102EA000936843F4804393600020D8E7702B24D1CB
:102EB000CB684A6889680068FFF798FF22689368C2
:102EC00043F0770393600020C9E7CA684968006847
:102ED000FFF71BFE60212068FFF72AFE0020BEE7F7
:102EE000CA6849680068FFF7FEFD40212068FFF7C7
:102EF0001FFE0020B3E70020B1E70120AFE702206A
:102F00007047000090F83C30012B2CD010B4012306
:102F100080F83C30022380F83D3003685A689C6892
:102F200022F0700C0A6842EA0C025A6003680F4AE9
:102F300093420AD0B3F1804F07D0A2F59432934266
:102F400003D002F58062934204D124F080044A68E1
:102F500014439C60012380F83D30002380F83C300E
:102F6000184610BC70470220704700BF002C01407B
:102F700070477047026802F10C0353E8003F23F4E6
:102F800090730C3242E800310029F3D1026802F15B
:102F9000140353E8003F23F00103143242E80031E8
:102FA0000029F3D1036B012B05D0202380F8423098
:102FB000002303637047026802F10C0353E8003FEB
:102FC00023F010030C3242E800310029F3D1ECE782
:102FD00010B504460268136923F44053C1680B43DB
:102FE000136183680269134342691A430168CB681D
:102FF00023F4B05323F00C031343CB6002685369EE
:1030000023F4407381690B4353610268134B9A4266
:1030100020D0FFF755FA024602EB820202EB820251
:1030200063689B00B2FBF3F20D48A0FB0231490933
:10303000642303FB11231B013233A0FB03235B0931
:1030400003F0F00202EB011203F00F0321681344B6
:103050008B6010BDFFF744FA0246DDE700380140FF
:103060001F85EB512DE9F04383B005460E46174608
:103070009946DDF828802C68246836EA04030CBFE2
:103080004FF0010C4FF0000CBC4528D1B8F1FF3FC8
:10309000F1D0FEF769FDA0EB0900404523D8B8F157
:1030A000000F22D02B68DA6812F0040FE3D0802ED4
:1030B000E1D0402EDFD01A6812F0080FDBD00024D8
:1030C00001941A6801925B680193019B2846FFF7FF
:1030D00051FF08236B6485F84040012000E0002088
:1030E00003B0BDE8F0830320FAE70320F8E760B3FC
:1030F00010B5044690F8413013B3242384F84130CE
:103100002268D36823F40053D3602046FFF760FFA2
:103110002268136923F4904313612268536923F0F2
:103120002A0353612268D36843F40053D36000201C
:103130006064202384F8413084F84230606310BD1D
:1031400080F84030FEF76AFCD7E7012070472DE990
:10315000F04182B01E4690F84130DBB2202B56D1B0
:1031600004460D469046002955D00AB901204FE08B
:1031700000234364212380F84130FEF7F5FC074625
:10318000A4F82480A4F82680A368B3F5805F02D059
:103190004FF0000814E023692BB34FF000080FE054
:1031A000202384F84130032032E038F8023B2268C3
:1031B000C3F308035360E28C92B2013A92B2E28404
:1031C000E38C9BB293B100963B46002280212046BF
:1031D000FFF748FF0028E3D1002DE6D015F8012BBA
:1031E00023685A60E7E7A8460025E9E700963B46D2
:1031F000002240212046FFF735FF18B9202384F82C
:10320000413005E0202384F84130032000E0022013
:1032100002B0BDE8F0810120FAE70000014B186818
:10322000704700BF0C00002070B50D4E0D4D761B91
:10323000B61006D0002455F8043B01349847A64246
:10324000F9D1094E094D05F0FFFF761BB61006D0E7
:10325000002455F8043B01349847A642F9D170BDCB
:10326000C0960008C0960008C8960008C0960008DE
:10327000830730B548D0541E002A3FD00346CAB257
:1032800001E0013C3AD303F8012B9D07F9D1032C4F
:103290002DD9CDB245EA05250F2C45EA054536D98D
:1032A000A4F1100222F00F0C03F1200EE6444FEAC5
:1032B000121C03F1100242E9045542E90255103292
:1032C0007245F8D10CF1010214F00C0F03EB02125D
:1032D00004F00F0C13D0ACF1040323F00303043308
:1032E000134442F8045B9342FBD10CF003042CB16D
:1032F000CAB21C4403F8012B9C42FBD130BD64468A
:103300001346002CF4D1F9E703461446BFE71A46EA
:10331000A446E0E70FB400B5074A83B004AB1068D9
:1033200053F8042B8168019300F008F803B05DF8AE
:1033300004EB04B0704700BF0C0000202DE9F04FF3
:10334000D5B01C46914607910546099003F03CF91B
:1033500002680E941046179204F0E6F816901DB11C
:10336000AB6B002B00F01D82079A536EDD0740F116
:103370002D81B2F90C2091B28F0409D4079B42F43D
:1033800000529A8191B21A465B6E23F40053536641
:103390000E0740F1C080079B1B69002B00F0BB802B
:1033A00001F01A030A2B00F0C48000242BAB224644
:1033B00098464D46CDE929442893129400230024D1
:1033C000CDE914342B78CDE91922CDE91B221892CE
:1033D0000B92002B00F08F81AA4604E01AF8013FFF
:1033E000002B00F0BB80252BF8D1BAEB050640F08E
:1033F000B9809AF80030002B00F07D8100234FF057
:10340000FF324FF02B0920241F469AF801600892E2
:103410000AF1010A8DF883300A930AF1010AA6F134
:1034200020035A2B00F2E180DFE813F00503DF00F0
:10343000DF000003DF00DF00DF00DE02DF00DF006F
:103440006A006E02DF0055027802DF0073025B0043
:103450005B005B005B005B005B005B005B005B0094
:10346000DF00DF00DF00DF00DF00DF00DF006C01D6
:10347000DF00EA01C4016C016C016C01DF00DF00B8
:10348000DF00DF00D002DF00DF002302DF00DF000B
:10349000DF00F801DF009202DF00DF008707DF00B6
:1034A000DF00DF00DF00DF00DF00DF00DF006C0196
:1034B000DF00EA01C6016C016C016C01B602C601B5
:1034C000BF01DF00C302DF005A022502A402BF01D0
:1034D000DF00F80172008407DF00DF006507DF000E
:1034E00072000022A6F130031AF8016B02EB82028F
:1034F00003EB4202A6F13003092BF5D90A928EE7BD
:103500000E9B53F8042B002A0A920E93C0F2E0811E
:103510009AF8006081E7079D0998294601F0FCFCB4
:10352000002841F04D83A98901F01A030A2B7FF48A
:103530003CAF079AB2F90E30002BFFF636AF536E50
:10354000D80702D4890541F1488123464A460799A4
:10355000099855B0BDE8F04F01F09CBCBAEB0506E8
:1035600000F0C9802A9BC8E9005633442A93299B5E
:103570000133072B299305DC08F108080B9B334422
:103580000B9336E70799099828AA04F06BF880B9DD
:103590000DF1AC08F2E70799099828AA04F062F83F
:1035A000002800F099800D9B1BB11946099802F084
:1035B000E7FE079A536ED90740F1E88093895B06CE
:1035C00001F10A830B9855B0BDE8F08F079BB3F962
:1035D0000C20900591B23FF5CFAE1D46986D02F0DC
:1035E000FBFFB5F90C2091B2C6E6002E00F08380F7
:1035F000012300228DF8EC6006933BAD8DF883200B
:103600000C930D9208920F921392109217F00203EE
:1036100002D006990231069117F0840B07D10A995E
:103620000698A1EB0009B9F1000F00F390832A9CE2
:1036300082B10122C8F80420299A013401320DF127
:103640008301072A2A942992C8F8001000F3D8832E
:1036500008F108087BB10223C8F80430299B023422
:10366000013321AA072B2A942993C8F8002000F3DC
:10367000D58308F10808BBF1800F00F08882089B11
:103680000C9AA3EB020BBBF1000F00F3CB82FB05FE
:1036900000F11F820C9BC8F800501C44C8F804308D
:1036A000299B2A940133072B299300F3448308F1C3
:1036B0000808780705D50A9B069A9D1A002D00F385
:1036C000B983DDE90A2306998A42ACBF9B185B18CF
:1036D0000B93002C7FF45FAF002329930D9B1BB14C
:1036E0000D99099802F04CFE55460DF1AC082B7867
:1036F000002B7FF471AE2A9B002B41F01082002337
:10370000299356E70E9B073323F00702F2E80234B1
:10371000CDE91434DDE9143424F000449946184608
:103720000E9221464FF0FF32AB4BFDF73BFC0028D9
:1037300040F01885484621464FF0FF32A64BFDF772
:1037400013FC002840F00E85DDE91401002200235F
:10375000FDF700FC002840F065879DF883200021DC
:1037600003209E4D9E4B27F080070D910690472E1B
:10377000C8BF1D4608910C900F9113911091002A1B
:103780003FF444AF069B013306933FE7079B9B89B9
:103790009A053FF514AF079CA06D02F01FFFA389A7
:1037A0000DE7099802F0F4FCDEE59AF8006047F0B6
:1037B000200732E647F01007BA060E9B40F16E84F0
:1037C000073323F007031A465B6852F8084B994603
:1037D0000E92002BC0F26F84089B013300F0FB8235
:1037E00054EA090327F0800B40F0F682089B002B77
:1037F00040F0F7825F46002354AD08930C933DE1FF
:10380000012000220E9B069053F8041B3BAD8DF85F
:1038100083208DF8EC100E930C90F2E64FF0000927
:103820000E9C089B54F8045B8DF88390002D00F0EB
:10383000A1855A1C00F0A5861A464946284603F081
:10384000EBF90D90002801F050810D9B9DF883202D
:103850005B1B0C9323EAE373CDF820900E94069340
:10386000CDF83490CDF83C90CDF84C90CDF8409008
:1038700085E747F0100717F0200900F0F2830E9B50
:10388000073323F00703D3F8049053F8084B0E9343
:10389000002327F4806B00228DF88320089A511CA6
:1038A00000F0D48054EA09012BF0800740F0CD806D
:1038B000002A40F00486002B9DD11BF001030C93DD
:1038C00000F0308430230DF24F158DF84F31D5E0E4
:1038D0000A9B5B420A939AF8006047F004079CE554
:1038E000BD0600F1FD84FC0600F1EE85780600F1CE
:1038F000B286B90540F1E8850E9B0B9953F8042B6D
:10390000554611700E93F2E69AF800608DF8839098
:1039100083E59AF8006047F080077EE5524612F88A
:10392000016B2A2E01F08D82A6F13003092B9246FD
:1039300098BF002201F2E5801AF8016B02EB8202C7
:1039400003EB4202A6F13003092BF5D9089266E594
:1039500047F0100B1BF0200900F091830E9B0733FA
:1039600023F007031A4652F8084BD3F804900E923E
:10397000012390E7302278260E9B8DF8842053F89F
:10398000044B184A0E934FF00009022347F0020B34
:103990008DF8856018927EE79AF80060682E03BF64
:1039A0009AF8016047F400770AF1010A47F04007EE
:1039B00033E59AF800606C2E03BF9AF8016047F077
:1039C00020070AF1010A47F0100726E59AF800607F
:1039D00047F0080721E500BFFFFFEF7FBC9200081A
:1039E000C0920008CC920008099E304602F0ECFD1F
:1039F000436818461B9303F097FD034630461C931B
:103A00001E4602F0E1FD83681993002E3FF480AD5D
:103A1000199B002B3FF47CAD199B1B78002B3FF4C6
:103A200077AD9AF8006047F48067F6E49AF8006092
:103A300047F00107F1E49DF88330002B7FF468AD77
:103A40009AF800608DF88340E7E4BB46012B00F054
:103A5000C381022B54AD1FD1189A04F00F03D35C1D
:103A6000240944EA09744FEA191905F8013D54EA9A
:103A70000903F2D15F4654AB5B1B0C93089A0C9977
:103A800000238A42B8BF0A460D9306920F939DF811
:103A900083201393109372E604F00703E40844EACA
:103AA00049744FEAD909303354EA09012A4605F826
:103AB000013DF1D11BF0010FDCD0302BDAD03023E7
:103AC000023A05F8013C54AB9B1A5F4615460C932D
:103AD000D4E7652E40F3E980DDE9140100220023DC
:103AE000FDF72EFA002800F0E1810123C8F8043028
:103AF000299BC04A01330134072B2A942993C8F823
:103B0000002000F3BF8408F10808229B129A934218
:103B100080F2DC82169B179A1C44C8E90023299B7B
:103B20002A940133072B299300F3178408F108081E
:103B3000129B5D1E002D7FF7BCAD102D41F35D8102
:103B4000DFF8B492224649461026B946299B0F4613
:103B5000DDF824B0079C05E008F10808103D102DA1
:103B600040F39D8401331032072BC8E90076CDE97C
:103B70002932F1DD2146584628AA03F073FD0028BA
:103B80007FF411ADDDE929320DF1AC08E6E70A9BBF
:103B9000069AA3EB020BBBF1000F7FF770ADBBF1F0
:103BA000100F41F35280DFF85092204641464C46B8
:103BB000A8461023299A079DDDF8249006E0ABF172
:103BC000100BBBF1100F01F1080119DD01321030AB
:103BD000072AC1E90043CDE92920F0DD29464846FE
:103BE00028AA03F03FFD00287FF4DDACDDE92920A1
:103BF000ABF1100BBBF1100F4FF010032BA9E5DC5C
:103C00004546A1468846044601325C44072ACDE970
:103C10002924C8F80090C8F804B000F3918308F193
:103C200008082CE5BBF1100F40F3E384DFF8C891DE
:103C3000204641464C46A8461023299A079DDDF8A8
:103C4000249006E0ABF1100BBBF1100F01F108015D
:103C500019DD01321030072AC1E90043CDE92920DE
:103C6000F0DD2946484628AA03F0FCFC00287FF432
:103C70009AACDDE92920ABF1100BBBF1100F4FF02E
:103C800010032BA9E5DC4546A146884604460132CF
:103C90005C44072ACDE92924C8F80090C8F804B08C
:103CA00000F3D28108F10808F1E4129B012B40F3E4
:103CB00082810123299E01341E44072EC8F800503A
:103CC0002A94C8F80430299600F36C8308F1080898
:103CD000169B0136179A1C44072EC8E90023CDE92C
:103CE000296400F36C8308F108080022DDE914015F
:103CF0000023FDF725F9002840F07A81129B013658
:103D0000013B01351C44072EC8F800502996C8F81D
:103D100004302A9400F35F8108F108081A9B0136E9
:103D20001C44C8F80430072E24ABCDE92964C8F838
:103D300000307FF7BCAC0799099828AA03F092FCE1
:103D400000287FF430AC2A9C0DF1AC08B1E4B9F145
:103D5000100F40F3C686DDE929214046CDE91D3626
:103D6000B84610244F46079EA946099D04E0103F1F
:103D7000102F00F1080016DD0132204B1031072A08
:103D8000C0E90034CDE92921F1DD3146284628AAD1
:103D900003F068FC00287FF406ACDDE92921103F20
:103DA000102F2BA8E8DC4D46DDE91D36B946474605
:103DB000804609EB010401321049072ACDE9292484
:103DC000C8F80490C8F8001000F340839DF88320E1
:103DD00008F108082CE4BB460A2C79F1000380F0B6
:103DE000FB82012330345F468DF84F410C930DF276
:103DF0004F1543E6FC92000810930008009300085A
:103E00000799099828AA1D9303F02CFC00287FF439
:103E1000CAAB2A9C1D9B0DF1AC081BE407990998BD
:103E200028AA03F01FFC00287FF4BDAB2A9C0DF1EB
:103E3000AC0820E4102D40F3BE861026299B099F74
:103E4000DDF81C9004E0103D102D08F1080817DD86
:103E50000133BA4A1034072BC8E90026CDE92934CA
:103E6000F1DD4946384628AA03F0FCFB00287FF420
:103E70009AABDDE92934103D102D0DF1AC08E7DCDB
:103E80000133AE4A2C44072BCDE92934C8F804503D
:103E9000C8F800207FF715AC0799099828AA03F005
:103EA000E1FB00287FF47FAB2A9C0AE422990029D9
:103EB00040F31081DDF84090129B9945A8BF9946C8
:103EC000B9F1000F0BDD299B4C440133072BC8E9E6
:103ED00000592A94299300F3818508F10808109E5F
:103EE000B9F1000FA8BFA6EB0906002E00F3F5827A
:103EF000DDF840B07905AB4400F1AC84229B129A06
:103F0000934202DBFA0740F19283169A1799144400
:103F1000C8E90012299A2A940132072A299200F34B
:103F2000A88508F10808129AAE18A6EB0B06D51A58
:103F3000AE42A8BF2E46002E0DDD299B344401332E
:103F4000072BC8F800B0C8F804602A94299300F33E
:103F5000FC8508F10808002EA8BFAD1B002D7FF7D7
:103F6000A8AB102D40F34987DFF8D491224649468B
:103F70001026B946299B0F46DDF824B0079C05E0C2
:103F800008F10808103D102D40F3898201331032EA
:103F9000072BC8E90076CDE92932F1DD21465846E4
:103FA00028AA03F05FFB00287FF4FDAADDE929328F
:103FB0000DF1AC08E6E7FE073FF57BAE0123299E35
:103FC00001341E44072EC8F800502A94C8F8043063
:103FD00029967FF7A1AE0799099828AA03F042FB1A
:103FE00000287FF4E0AADDE929640DF1AC0895E62C
:103FF000129B5D1E002D7FF791AE102D40F31987A7
:10400000224608974FF0100BDFF83491099C079F68
:1040100005E008F10808103D102D40F3C782013675
:104020001032072EC8E9009BCDE92962F1DD39463F
:10403000204628AA03F016FB00287FF4B4AADDE985
:1040400029620DF1AC08E6E70799099828AA03F060
:1040500009FB00287FF4A7AA2A9C0DF1AC08FFF702
:1040600016BB17F0100377D117F0400200F0AC82B6
:104070000E9A994652F8044B0E92A4B208E41BF033
:1040800010030E9A54D11BF040014DD052F8044B4E
:1040900099460E920123A4B2FFF7FDBB53F8044BDF
:1040A0000E93FB0653D47D064ED544F3C0394B46E0
:1040B00024B2FFF78EBB2D2364428DF88330BB46BC
:1040C0004FF0010369EB4909FFF7E8BBF8077FF5FB
:1040D000F0AA1FE50123C8F80430299B194A0133CF
:1040E0000134072B2A942993C8F8002000F3688430
:1040F00008F10808002940F02582129A07F0010310
:1041000013433FF4D6AA169B1799E218C8E9001387
:10411000299B2A920133072B299300F3508308F13E
:10412000080820E254ADA9E41BF4007940F0A08215
:1041300052F8044B01230E92FFF7ADBB0093000829
:1041400010930008FC920008B80500F179824FEA4C
:10415000E4794B46FFF73DBB0E9B53F8044B0E939F
:10416000FFF796BBDDE9140102460B46FCF71AFF88
:10417000002840F0F785612E00F06C85412E00F09C
:104180007F82089B013300F0948526F02003472BA3
:10419000069300F07B85DDE9141247F480730F93DA
:1041A0001346002BC0F2F4850C9300238B461D931D
:1041B0000D93069B462B00F02B84452B00F01485B5
:1041C00008990C9B01910221009126A9049123A931
:1041D000039122A95A460998029100F0ADFF069B6F
:1041E0000546472B40F0448617F0010FB9460F9F54
:1041F00040F0F784269B5B1B1293069B472B00F035
:10420000F182069B462B00F04284229B1093109B68
:10421000069A013B412A229300F08A850021F2B2DE
:10422000002B8DF89020B6BF2D222B22109B8DF8ED
:104230009120B8BFC3F10103092B40F381850DF133
:104240009F0C6246BA4F1C46104687FB0312D917D3
:10425000C1EBA20101EB8102A3EB42023032632CDD
:1042600000F8012C0B4600F1FF32ECDC3033811EEC
:10427000DBB28C4502F8013C40F2FF850DF1920162
:1042800001E012F8013B944501F8013BF9D10DF131
:10429000A1030DF192021B1A134424AA9B1A1A932C
:1042A000129B1A9A012B1A440C9240F39E850C9B88
:1042B000169A13440C9300230C9A29F4806722EA7F
:1042C000E27247F480770F930692139310931D9B2D
:1042D000002B40F0B0829DF883200893FFF74FBA7F
:1042E0000E9B0B9853F8041BC2175546C1E90002F8
:1042F0000E93FFF7FCB98F4B189317F0200949D0A4
:104300000E9B073323F00703D3F8049053F8084BB0
:104310000E93F80709D554EA090306D030238DF827
:10432000856047F002078DF88430022327F4806B04
:10433000FFF7B1BABB46FFF70DBB7F4B1893DCE725
:104340000799099828AA03F08DF900287FF42BA972
:104350002A9C0DF1AC08FFF792B90799099828AA91
:1043600003F080F900287FF41EA92A9C0DF1AC0807
:10437000FFF7DEBB062B294628BF06232A460895F1
:104380000D9506936D4D0E940C930F911391109112
:10439000FFF7F5B917F0100369D00E9B53F8044BE3
:1043A0000E93B6E70799099828AA03F05BF900284D
:1043B0007FF4F9A8DDE929640DF1AC0888E40799D8
:1043C000099828AA03F04EF900287FF4ECA8DDE94B
:1043D00029640DF1AC0888E400230BF48062CDE978
:1043E0000CA8069692461E46DDF8648054AF0CE099
:1043F0000023204649460A22FCF712FE0A2C79F1D6
:1044000000031BD3044689462F4620460A22002378
:104410004946FCF705FE30327D1E013607F8012CB7
:10442000BAF1000FE4D098F800309E42E0D1FF2EA0
:10443000DED00A2C79F1000380F0E080CDF86480B2
:104440001296DDE90CA8069EFFF714BB07990998A0
:1044500028AA1D9303F006F900287FF4A4A89DF86C
:1044600083202A9C1D9B0DF1AC08FFF7E1B817F0E3
:10447000400200F0B4800E9A994652F8044B0E9216
:10448000A4B246E70799099828AA03F0EBF8002898
:104490007FF489A82A9C0DF1AC08FFF736BB1446BF
:1044A0003A464F46914601332C44072BC8F80090FA
:1044B000C8F80450CDE929347FF7F9A83BE4012B73
:1044C000BB467FF4C6AA8CE40E9B0B9953F8042BD1
:1044D000554611600E93FFF70AB9102E40F3AD84D4
:1044E000DFF85C90214648464246B946A8464FF060
:1044F000100B0746299B099C079D04E00832103EDB
:10450000102E40F3488201331031072BC2E9007BA3
:10451000CDE92931F2DD2946204628AA03F0A2F888
:1045200000287FF440A8DDE929312BAAE7E700BF86
:1045300067666666CC920008E0920008F492000874
:1045400010930008169B1798E218C8E90003299BEE
:104550002A920133072B299300F3318108F10808CF
:104560000029C0F20283129901338C18072BCDE980
:104570002934C8F80050C8F804107FF798A8FFF74E
:10458000DABB2846CDF820900E9402F0CDFF20EA49
:10459000E073CDE90C099DF88320CDF83C90CDF86F
:1045A0004C90CDF840900693FFF7E9B81446089F69
:1045B00001362C44072ECDE92964C8F80090C8F8CC
:1045C00004507FF7A9AB06E517F400790E9B3DD0A8
:1045D00053F8044B91460E93E4B2FFF759B917F420
:1045E00000790E9B40D053F8044B91460E93E4B2F1
:1045F0008FE6299ADFF84C92FFF749BB1C9B1B9969
:10460000ED1A1A46284602F0BDFF98F801300BB1AA
:1046100008F10108204649460A2200230026FCF73B
:10462000FFFCEFE62D228DF88320FFF798B8129A51
:10463000AE18A6EB0B06D51AAE42A8BF2E468AE4EA
:1046400044F3C0194B4664B2FFF7C3B853F8044BA8
:104650000E93FFF71DB90E9B0B9953F8042B55468B
:1046600011800E93FFF743B853F8044B0E9350E6B6
:1046700052F8044B894601230E92E4B2FFF70BB9BE
:1046800030238DF8843058238DF88530089B47F00F
:104690000204632B00F3E38200233BAD0D9347F448
:1046A00081730F93DDE914121346002B2746C0F2E5
:1046B00040820C9300238B461D9326F02003069323
:1046C000612E00F01783412E7FF473AD22AA584665
:1046D0000C9902F099FE00224FF07F53FCF7C8F9C5
:1046E00002460B46CDE9102300220023FCF728FCEC
:1046F00008B101232293544B0C93089BCDE912A6D9
:10470000CDE91E78DDE91067AB46DDF830A003F196
:10471000FF39109506E00022002309F1FF39FCF76C
:104720000FFCE8B90022494B30463946FCF7A0F9A6
:104730000F460646FCF74CFC0446FBF75BFE0B46B7
:10474000024639463046FBF707FD1AF80430B9F146
:10475000FF3FD8464D4606460F460BF8013BDAD1DF
:104760003046394600223A4BA946DDF848A0109D54
:10477000CDF84880CDE91001DDF87C80139E1E9FA6
:10478000FCF706FC002840F04482DDE9100100221D
:104790002F4BFCF7D5FB10B1E10700F13A824B46F5
:1047A000002B06DB302201335B440BF8012B5B4509
:1047B000FBD1ABEB0503B94612930F9F1DE507999B
:1047C000099828AA02F04EFF00287EF4ECAEDDE93D
:1047D000293222990DF1AC08C2E6906D01F0FEFE7F
:1047E000FEF7B3BE229BDA1C109302DB089A9342B9
:1047F00004DD023E26F02003069308E5109B129A82
:104800009342C0F2828119F0010F00F0A882169A3B
:1048100013440C9319F4806F00F09082109B67266C
:10482000002B00F346810C9B23EAE37306930023DD
:104830000F9313934BE52D2200238DF883200893CB
:10484000FEF7A0BF10930008E0920008000030407F
:104850000000E03F129B4246DDF84C80EB185E46BC
:104860000893CDF830A010972146199FDDF870907D
:10487000DDF824A0DDF81CB00F9B1395B8F1000FF4
:104880002ED0002B6CD1013F08F1FF381B9B49440F
:10489000C2E90039299B2A910133072B299363DC54
:1048A0000832089B38789B1B8342A8BF0346002B25
:1048B0001C460ADD2998194401300728C2E9006323
:1048C0002A9129905BDC38780832002CB4BF054669
:1048D000051B002D15DC06440F9BB8F1000FD0D14D
:1048E000002B3DD1DDE91235EB189E42B3461997F6
:1048F0000C46904628BF9B46DDF830A0109FFFF77E
:10490000FDBA102D40F36F821024299804E0103D69
:10491000102D02F1080216DD0130A84B10310728D6
:10492000C2E90034CDE92901F1DD5946504628AAF3
:1049300002F098FE00287EF436AEDDE92901103D34
:10494000102D2BAAE8DC01309C4B29440728CDE927
:104950002901556013604EDC387808320644BBE705
:104960000F9B013B0F9391E75946504628AA02F04E
:1049700079FE00287EF417AE2A992BAA91E75946B2
:10498000504628AA02F06EFE00287EF40CAE38785D
:104990002A992BAA99E7454690463A460C464F4637
:1049A000914601333444072BCDE92934C8F80090EF
:1049B000C8F8046000F35D8108F10808FFF798BAB1
:1049C0000799099828AA02F04DFE00287EF4EBAD65
:1049D00022992A9C0DF1AC08FFF78CBB0799099826
:1049E00028AA02F03FFE00287EF4DDAD2A9C0DF1DE
:1049F000AC08FFF774BA5946504628AA02F032FEB6
:104A000000287EF4D0AD38782A992BAA064463E7B3
:104A100008990C9B01910321009126A9049123A9D7
:104A2000039122A95A460998029100F085FB037868
:104A30000546302B00F0C081229B089AB9461344EA
:104A40000F9FEC185846002200230C99FCF778FAC7
:104A500010B12346FFF7CFBB269BA342BFF4CBABDD
:104A600030215A1C26921970269B9C42F9D8FFF7D8
:104A7000C2BB0799099828AA02F0F4FD00287EF429
:104A800092AD229B2A9C0DF1AC08FFF74CBA229AFA
:104A9000002A109240F3B981089909F001030B43F1
:104AA00040F040816626109B0C9319F4806F3FF410
:104AB000BAAE19990B78FF2B00F0D6810024109A1A
:104AC000204604E001300131FF2B00F06481934265
:104AD00080F26181D21A4B78002BF3D10B7801342C
:104AE000F2E7DDE92921FFF764B9089B9DF88320EF
:104AF0000E9406930C9308900F9013901090FEF76D
:104B00003EBE00230893FEF78ABC129B169A9A18A1
:104B1000109B0C92002B40F35D816726C5E7079937
:104B2000099828AA02F09EFD00283EF4E8ADFEF7A1
:104B300040BD26F0200306932D22DDE914349B4668
:104B400004F100431D920C93BAE50799099828AA2D
:104B500002F088FD00287EF426AD229D129B2A9C3F
:104B60000DF1AC085D1BFFF7F6B94E42103180F233
:104B7000818141461024A846DFF84090DDF824B03A
:104B8000079D04E00831103E102E40F39980013358
:104B90001032072BC1E90094CDE92932F2DD294614
:104BA000584628AA02F05EFD00287EF4FCACDDE940
:104BB00029322BA9E7E7299BFFF762B91093000878
:104BC000079B5B6EDD0707D4079B9B899C0503D47D
:104BD000079B986D01F002FD4FF0FF330B93FEF73A
:104BE000F1BC089BEC182DE70221009108995A4668
:104BF0004C1C26A9049123A9039122A90C9B099876
:104C00000194029100F098FA0546B9462C440F9F92
:104C100018E7129B26930C9B1BF8012CD97B5B4653
:104C20008A4209D1302003F8010C269B5A1E269295
:104C300013F8012C9142F6D0392A0BBF0C9A01329D
:104C4000927AD2B203F8012CB3E5299ADFF83492B4
:104C5000FEF7DABF30238DF88430782314E5099805
:104C6000591C01F02DFD0546002800F0F6800D903E
:104C700015E50799099828AA02F0F4FC00287EF4AB
:104C800092AC2A9C0DF1AC08FFF732B9089B002BBF
:104C900008BF0123089347F480730F93159B002BE3
:104CA000C0F2A980DDF850B01D900C930D90FFF775
:104CB00087BA0623089326F020030693FFF76BBA02
:104CC0004546884601333244072BCDE92932C8F8DE
:104CD0000090C8F804607FF722AA0799099828AACB
:104CE00002F0C0FC00287EF45EACDDE929320DF153
:104CF000AC0838E422AA58460C9902F085FB002241
:104D00004FF07F53FBF7B4FE02460B46CDE910236C
:104D100000220023FCF714F908B1012322935A4B17
:104D20000C93EAE4169B6626D31819440C91BCE652
:104D300006F10F020121D2B2FFF772BA672672E5BF
:104D400000295FD130228DF892200DF1930230338B
:104D500002F8013B24ABD31A1A93FFF7A1BA109BB8
:104D60000C9357E5159B0320002BB8BF2D224FF065
:104D70000003A8BF9DF8832019460D93434D444B73
:104D8000B8BF8DF8832027F080070690FEF7EFBCB0
:104D900000230D93D0E61991109213900F940F9A5F
:104DA000139B1C9913440C9A01FB03230C9323EAD5
:104DB000E3730693FFF78BBA5846002200230C9941
:104DC000FCF7BEF800287FF437AE089BC3F101035F
:104DD000229332E6C3F101031A4422EAE273672602
:104DE0000C92069323E52998ADE519F0010F3FF4E5
:104DF00062AAFFF75CBA0D909EE6299BDFF88490CB
:104E0000FFF751BB0DF19202A1E7089A09F00109E1
:104E100059EA020304D10123662606930C9306E5A2
:104E2000169B662601331A4422EAE2730C9206931B
:104E3000FDE4DFF85090FFF7BBBB299BDFF84490FF
:104E4000AFE50E9B9AF80160924653F8042B0E933F
:104E500042EAE2730893FEF7E0BA079A938943F0B7
:104E600040039381FEF7A5BB00230F93139396E7AE
:104E7000089CCAE6DFF80C9024E702231A93FFF798
:104E80000FBA00BF10930008CC920008C49200082B
:104E9000C8920008F0B54FF4806C15460024064611
:104EA0001F46ADF26C4D1AAB009304938B8916A884
:104EB00023F00203ADF80C304B6E06941993CB89A6
:104EC0000C46ADF80E30CB69CDF808C007934B6A9D
:104ED000CDF814C0099301F07BFB2A463B46694696
:104EE0003046FEF72BFA051E07DB6946304601F017
:104EF0001BF9002818BF4FF0FF35BDF80C305B06DA
:104F000003D5A38943F04003A381169801F062FB07
:104F100028460DF26C4DF0BD38B5334B05461B6885
:104F20000C460BB19A6B12B3B4F90C3018079AB255
:104F300025D5216900292DD012F0010007D00025C8
:104F40006069A5604042A06139B1002038BD950775
:104F500058BF6069A0600029F7D1120658BF084603
:104F6000F4D543F040034FF0FF30A38138BD18461D
:104F700001F00EF9B4F90C3018079AB2D9D4D10661
:104F80002AD5520714D4216943F00803A3819AB2A9
:104F90000029D1D102F42070B0F5007FCCD0214699
:104FA000284601F01DFBB4F90C3021699AB2C3E721
:104FB000216B51B104F14002914204D0284601F026
:104FC000DFF9B4F90C30002222630022216923F0BA
:104FD0002403C4E90012D7E7092243F040032A6002
:104FE0004FF0FF30A38138BD0C000020024B13B1FD
:104FF000024800F005B8704700000000B5620008E4
:10500000002301461A46184603F058BA2DE9F04F1E
:1050100003690C6985B0A342C0F28980013C01F1AB
:105020001405A30000F11408019355F8243058F832
:10503000242001338A469A4208EB84018146B2FB60
:10504000F3F605EB840702913AD30021AE464046C1
:105050000A46A34603955EF8045B0468ABB206FB00
:1050600003132D0C190C06FB05119BB2D21A1FFA63
:1050700084FC94448AB2C2EB144202EB2C421FFA25
:105080008CFC4CEA0243774540F8043B4FEA11415F
:105090004FEA2242DFD2019B5C4658F80330039D61
:1050A00073B9029B043B984504D307E0984504F18B
:1050B000FF3403D253F80429002AF7D0C9F810406E
:1050C0005146484602F078F800282CDB4046002381
:1050D000013655F8041BD0F800C08AB29A1A1FFA9C
:1050E0008CFE0B0C7244C3EB1C4303EB224392B2C5
:1050F00042EA0342AF4240F8042B4FEA2343E8D28E
:1051000058F8242008EB84036AB9043B984504D37B
:1051100007E0984504F1FF3403D253F80429002A2C
:10512000F7D0C9F81040304605B0BDE8F08F002038
:1051300005B0BDE8F08F00BF2DE9F04F90469946CD
:10514000016C99B00446CDE90489259D41B1012344
:10515000426C93408B604A6001F0D8FD00232364C9
:10516000B9F1000AB4BF012300232B60764BBCBF0A
:105170002AF0004ACDF814A033EA0A0300F0AA800E
:10518000DDE904231046194600220023CDE90A0177
:10519000FBF7D6FE074670B10123249A1360269BC5
:1051A000002B00F0E68269481860431E03930398C1
:1051B00019B0BDE8F08F16AB019317AB00932046F2
:1051C000DDE90A2302F0BEF85FEA1A56054640F010
:1051D0009780DDE916763E4406F23240202840F3FF
:1051E000B783C0F140000AFA00FA06F2124028FA2A
:1051F00000F04AEA0000FBF7EDF80123013E0F93AF
:10520000A1F1F8710022524BFAF7A6FF48A3D3E9A7
:105210000023FBF72DFC48A3D3E90023FAF79EFFF8
:10522000804630468946FBF7E5F845A3D3E90023DD
:10523000FBF71EFC02460B4640464946FAF78EFF36
:1052400080468946FBF7C4FE002283460023404681
:105250004946FBF77FFE002840F07E82BBF1160F27
:1052600000F26D82DDE90A013A4B03EBCB03D3E98F
:105270000023FBF76FFE002872D00023BE1B0E93A5
:10528000731E0BF1FF3B069300F16082002309932C
:10529000BBF1000F6BDA099BCDF81CB0A3EB0B033D
:1052A0000993CBF100030D93229B4FF0000B092BC8
:1052B00066D8052B40F34A830026043B2293229BA9
:1052C000023B032B00F26C86DFE813F061045E04FE
:1052D0005504380442F20F73249ACAF3130A136078
:1052E0005AEA08031AD1269B002B00F068861A4B55
:1052F00003930833269A0398136019B0BDE8F08F22
:10530000DDE90A12C2F31303084643F07F510F97F9
:10531000A6F2FF36169F41F4401173E7269B002B3F
:1053200040F0EF830D4B039341E700BFAFF30080E4
:1053300061436F63A787D23FB3C8608B288AC63F9B
:10534000FB799F501344D33F0000F07FFD9200088B
:105350000000F83F70940008249300082093000890
:10536000BE1B731E069300F18A840E900990069B63
:105370005B44CDE9063B00230D93229B092B98D972
:10538000002322934FF0FF330126089300230C964D
:1053900023930021089B61641293204601F090FC46
:1053A0000390002800F00486039B2364089B0E2BC7
:1053B00000F21481002E00F011810799002940F3BA
:1053C0006084AF4B01F00F0203EBC2030A46D3E93E
:1053D00000674FEA2118D10540F11784DDE90A0181
:1053E000A84B4FF0030AD3E90823FBF76BFCCDE988
:1053F000100108F00F08B8F1000F13D0DFF8849205
:1054000018F0010F09D0D9E9002330463946FBF7DF
:105410002FFB06460F460AF1010A5FEA680809F108
:105420000809EDD1DDE9100132463B46FBF74AFCA5
:10543000804689460E9B43B1002240464946924B26
:10544000FBF788FD002840F035855046FAF7D2FF7B
:1054500042464B46FBF70CFB8C4B0022FAF77EFED4
:10546000A1F15073CDE910011193089B002B00F0BE
:105470009780079B1493089B13930C9B002B00F0C1
:10548000A984139A7E4B002003EBC20353E9022345
:105490007F49FBF717FCDDE91023FAF75DFECDE944
:1054A000100149464046FBF793FD0746FAF7A2FF75
:1054B00002460B4640464946FAF74EFEDDE9102308
:1054C000039E303706F8017B80468946FBF742FD94
:1054D000002840F02E85CDF854B00027DDE910AB50
:1054E0001095139D13942AE00137AF4280F22E8568
:1054F000504659460022674BFBF7BAFA0022654B2B
:1055000082468B4640464946FBF7B2FA89468046BA
:10551000FBF75EFD0446FAF76DFF02460B46404678
:105520004946FAF719FE303452465B4606F8014BFD
:1055300080468946FBF70EFD002840F0F88442467D
:105540004B4600205049FAF707FE52465B46FBF7F0
:1055500001FD0028C8D0DDE91343109D039A07938D
:1055600002E0964200F0CD84B24616F8013D392B98
:10557000F7D00133DBB23370079B01330793C8E1E7
:105580005046FAF737FF42464B46FBF771FA3F4B5E
:105590000022FAF7E3FDA1F15073CDE91001119358
:1055A0004046494600223C4BFAF7D6FDDDE910891A
:1055B0004B46424606460F46FBF7EAFC814600286A
:1055C00040F0AF84DDE91001024601F100433046AE
:1055D0003946FBF7BFFC002840F04883179B002B9F
:1055E000C0F28C80079A0E2A00F38880244B03EBCC
:1055F000C203D3E900AB239B002B1BDA089B002BD3
:1056000018DC40F031830022234B50465946FBF70B
:105610002FFA02460B46DDE90A01FBF7A5FCDDF88F
:1056200020904E46002800F0CA82239BDDF80C80B3
:10563000DF43CCE25246DDE90A785B463846414614
:10564000FBF740FBFBF7C4FC81460990FAF7D2FE5A
:1056500052465B46FBF70CFA039E0B460246414658
:105660003846FAF779FD09F1300306F8013B089B4B
:10567000012B00F05F83069401271C4604952AE065
:1056800070940008489400080000F03F00001C409F
:105690000000E03F000024400000144052465B46FA
:1056A00040464946FBF70EFBFBF792FC0546FAF72E
:1056B000A1FE52465B46FBF7DBF901370B4602467B
:1056C00049464046FAF748FD05F13003A74206F87F
:1056D000013B00F02C830022AB4BFBF7C9F9002201
:1056E000002380468946FBF72BFC0028D6D0049D7A
:1056F000069C079BB246013307930AE10C9A002AE5
:105700003DD0229A012A40F39F82089B03F1FF3883
:105710000D9B4345C0F27082A3EB0808089B002B49
:10572000C0F24083069A1A440692099A17461A4410
:1057300009920121204601F091FB064623E0012356
:10574000BE1B0E93731E06937FF5A0ADC6F1010339
:105750000993002306939BE55846FAF74BFE424611
:105760004B46FBF7EDFB00287FF478AD0BF1FF3BD8
:1057700074E5864B0393039819B0BDE8F08FDDF80C
:105780003480099F0C9E002F0CDD069900290B46E2
:1057900008DDB942A8BF3B46099AFF1AD21ACB1AB4
:1057A000099206930D9BE3B10C9B002B00F06082E5
:1057B000B8F1000F10DD31464246204601F02AFCC8
:1057C00006462A463146204601F076FB0346294626
:1057D00020461D4601F09AFA0D9BB3EB080240F0FB
:1057E000DB820121204601F039FBBBF1000F81462D
:1057F00000F3B380229B012B40F388814FF0000A15
:105800000120BBF1000F40F0B480069A104410F064
:105810001F0000F09280C0F12003042B40F3D383DB
:10582000099BC0F11C0003440244099307440692FB
:10583000099B002B05DD29461A46204601F046FC4F
:105840000546069B002B05DD49461A46204601F019
:105850003DFC81460E9B002B40F03881089B002BBD
:1058600040F31E810C9B002B40F09F80079B01336F
:1058700007930127DDF80C80DDF820A007E029461A
:1058800000230A22204601F04BFA0546013749461B
:105890002846FFF7BBFB574500F1300308F8013BF2
:1058A000EDDB089A0027002ACCBF93464FF0010B8E
:1058B000039A9344294601222046049301F006FCF2
:1058C0004946054601F078FC002840F3AB811BF8FF
:1058D000013C039A0BF1FF3B04E05A4500F0AD8117
:1058E0001BF8013D392B0BF1010AF6D001338BF87F
:1058F00000304946204601F009FA56B12FB1B742AF
:1059000003D03946204601F001FA3146204601F025
:10591000FDF92946204601F0F9F90023079A8AF893
:105920000030249B1A60269B002B3FF440AC039868
:10593000C3F800A019B0BDE8F08F1C20099B0744F4
:1059400003440993069B0344069371E70126B6E4DA
:10595000C0F1200008FA00F04DE401465A46204606
:1059600001F058FB229B8146012B40F3B6814FF09A
:10597000000AD9F8103009EB8303186901F022FA04
:10598000C0F1200041E700BF00002440FC92000865
:10599000314600230A22204601F0C2F9129B064636
:1059A000002B40F3E982CDE90783002F00F31D812E
:1059B000BAF1000F40F0D981B046049B089903F07A
:1059C0000102039B0A921F46013B1944229B089146
:1059D0001343099349462846FFF718FB314683468F
:1059E000284601F0E9FB424649468246204601F03E
:1059F00003FCC26801460BF13003002A43D1049036
:105A00002846069301F0D8FB0246049920460492EA
:105A100001F07CF9049A069B1AB90999002900F053
:105A20009B82BAF1000FC0F2648122994AEA010A0E
:105A30000A9951EA0A0100F05C81002A00F3B6815C
:105A4000089A07F1010A9742D3463B7000F0B481EF
:105A5000294600230A22204601F062F94645054600
:105A600031464FF000034FF00A02204612D001F0F9
:105A700057F94146064600230A22204601F050F914
:105A800057468046A6E72046049301F03FF90122DD
:105A9000049BC6E701F044F957460646804699E75D
:105AA000229B022B7ADC0C9B002B7FF47EAF079BA2
:105AB0004946013328460793FFF7A8FADDF80CB0F2
:105AC00000F1300300270BF8013BF3E64946284676
:105AD00001F072FB0028BFF6C1AE294600230A225E
